:020000040000fa
:080000000002040000000000f2
:020000040000fa
:04000800d40200001e
:020000040000fa
:04000c00d40200001a
:020000040000fa
:04001000d402000016
:020000040000fa
:04001400d402000012
:020000040000fa
:04001800d40200000e
:020000040000fa
:04001c00d40200000a
:020000040000fa
:04002000d402000006
:020000040000fa
:04002400d402000002
:020000040000fa
:04002800d4020000fe
:020000040000fa
:04002c00d4020000fa
:020000040000fa
:04003000d4020000f6
:020000040000fa
:04003400cc020000fa
:020000040000fa
:04003800d4020000ee
:020000040000fa
:04003c00d4020000ea
:020000040000fa
:04004000d4020000e6
:020000040000fa
:04004400d4020000e2
:020000040000fa
:04004800d4020000de
:020000040000fa
:04004c00d4020000da
:020000040000fa
:04005000d4020000d6
:020000040000fa
:04005400d4020000d2
:020000040000fa
:04005800d4020000ce
:020000040000fa
:04005c00d4020000ca
:020000040000fa
:04006000d4020000c6
:020000040000fa
:04006400d4020000c2
:020000040000fa
:04006800d4020000be
:020000040000fa
:04006c00d4020000ba
:020000040000fa
:04007000d4020000b6
:020000040000fa
:04007400d4020000b2
:020000040000fa
:04007800d4020000ae
:020000040000fa
:04007c00d4020000aa
:020000040000fa
:04008000d4020000a6
:020000040000fa
:04008400d4020000a2
:020000040000fa
:04008800d40200009e
:020000040000fa
:04008c00d40200009a
:020000040000fa
:04009000d402000096
:020000040000fa
:04009400d402000092
:020000040000fa
:04009800d40200008e
:020000040000fa
:04009c00d40200008a
:020000040000fa
:0400a000d402000086
:020000040000fa
:0400a400d402000082
:020000040000fa
:0400a800d40200007e
:020000040000fa
:0400ac00d40200007a
:020000040000fa
:0400b000d402000076
:020000040000fa
:0400b400d402000072
:020000040000fa
:0400b800d40200006e
:020000040000fa
:0400bc00d40200006a
:020000040000fa
:0400c000d402000066
:020000040000fa
:0400c400d402000062
:020000040000fa
:0400c800d40200005e
:020000040000fa
:0400cc00d40200005a
:020000040000fa
:0400d000d402000056
:020000040000fa
:0400d400d402000052
:020000040000fa
:0400d800d40200004e
:020000040000fa
:0400dc00d40200004a
:020000040000fa
:0400e000d402000046
:020000040000fa
:0400e400d402000042
:020000040000fa
:0400e800d40200003e
:020000040000fa
:0400ec00d40200003a
:020000040000fa
:0400f000d402000036
:020000040000fa
:0400f400d402000032
:020000040000fa
:0400f800d40200002e
:020000040000fa
:0400fc00d40200002a
:020000040000fa
:04010000d402000025
:020000040000fa
:04010400d402000021
:020000040000fa
:04010800d40200001d
:020000040000fa
:04010c00d402000019
:020000040000fa
:04011000d402000015
:020000040000fa
:04011400d402000011
:020000040000fa
:04011800d40200000d
:020000040000fa
:04011c00d402000009
:020000040000fa
:04012000d402000005
:020000040000fa
:04012400d402000001
:020000040000fa
:04012800d4020000fd
:020000040000fa
:04012c00d4020000f9
:020000040000fa
:04013000d4020000f5
:020000040000fa
:04013400d4020000f1
:020000040000fa
:04013800d4020000ed
:020000040000fa
:04013c00d4020000e9
:020000040000fa
:04014000d4020000e5
:020000040000fa
:04014400d4020000e1
:020000040000fa
:04014800d4020000dd
:020000040000fa
:04014c00d4020000d9
:020000040000fa
:04015000d4020000d5
:020000040000fa
:04015400d4020000d1
:020000040000fa
:04015800d4020000cd
:020000040000fa
:04015c00d4020000c9
:020000040000fa
:04016000d4020000c5
:020000040000fa
:04016400d4020000c1
:020000040000fa
:04016800d4020000bd
:020000040000fa
:04016c00d4020000b9
:020000040000fa
:04017000d4020000b5
:020000040000fa
:04017400d4020000b1
:020000040000fa
:04017800d4020000ad
:020000040000fa
:04017c00d4020000a9
:020000040000fa
:04018000d4020000a5
:020000040000fa
:04018400d4020000a1
:020000040000fa
:04018800d40200009d
:020000040000fa
:04018c00d402000099
:020000040000fa
:04019000d402000095
:020000040000fa
:04019400d402000091
:020000040000fa
:04019800d40200008d
:020000040000fa
:04019c00d402000089
:020000040000fa
:04020800d40200001c
:020000040000fa
:04020c00d402000018
:020000040000fa
:04021000d402000014
:020000040000fa
:04021400d402000010
:020000040000fa
:04021800d40200000c
:020000040000fa
:04021c00d402000008
:020000040000fa
:04022000d402000004
:020000040000fa
:04022400d402000000
:020000040000fa
:04022800d4020000fc
:020000040000fa
:04022c00d4020000f8
:020000040000fa
:04023000d4020000f4
:020000040000fa
:04023400cc020000f8
:020000040000fa
:04023800d4020000ec
:020000040000fa
:04023c00d4020000e8
:020000040000fa
:04024000d4020000e4
:020000040000fa
:04024400d4020000e0
:020000040000fa
:04024800d4020000dc
:020000040000fa
:04024c00d4020000d8
:020000040000fa
:04025000d4020000d4
:020000040000fa
:04025400d4020000d0
:020000040000fa
:04025800d4020000cc
:020000040000fa
:04025c00d4020000c8
:020000040000fa
:04026000d4020000c4
:020000040000fa
:04026400d4020000c0
:020000040000fa
:04026800d4020000bc
:020000040000fa
:04026c00d4020000b8
:020000040000fa
:04027000d4020000b4
:020000040000fa
:04027400d4020000b0
:020000040000fa
:04027800d4020000ac
:020000040000fa
:04027c00d4020000a8
:020000040000fa
:04028000d4020000a4
:020000040000fa
:04028400d4020000a0
:020000040000fa
:04028800d40200009c
:020000040000fa
:04028c00d402000098
:020000040000fa
:04029000d402000094
:020000040000fa
:04029400d402000090
:020000040000fa
:04029800d40200008c
:020000040000fa
:04029c00d402000088
:020000040000fa
:0402a000d402000084
:020000040000fa
:0402a400d402000080
:020000040000fa
:0402a800d40200007c
:020000040000fa
:0402ac00d402000078
:020000040000fa
:0402b000d402000074
:020000040000fa
:0402b400d402000070
:020000040000fa
:0402b800d40200006c
:020000040000fa
:0402bc00d402000068
:020000040000fa
:0402c000d402000064
:020000040000fa
:0402c400d402000060
:020000040000fa
:0402c800d40200005c
:020000040000fa
:0402cc00d402000058
:020000040000fa
:0402d000d402000054
:020000040000fa
:0402d400d402000050
:020000040000fa
:0402d800d40200004c
:020000040000fa
:0402dc00d402000048
:020000040000fa
:0402e000d402000044
:020000040000fa
:0402e400d402000040
:020000040000fa
:0402e800d40200003c
:020000040000fa
:0402ec00d402000038
:020000040000fa
:0402f000d402000034
:020000040000fa
:0402f400d402000030
:020000040000fa
:0402f800d40200002c
:020000040000fa
:0402fc00d402000028
:020000040000fa
:04030000d402000023
:020000040000fa
:04030400d40200001f
:020000040000fa
:04030800d40200001b
:020000040000fa
:04030c00d402000017
:020000040000fa
:04031000d402000013
:020000040000fa
:04031400d40200000f
:020000040000fa
:04031800d40200000b
:020000040000fa
:04031c00d402000007
:020000040000fa
:04032000d402000003
:020000040000fa
:04032400d4020000ff
:020000040000fa
:04032800d4020000fb
:020000040000fa
:04032c00d4020000f7
:020000040000fa
:04033000d4020000f3
:020000040000fa
:04033400d4020000ef
:020000040000fa
:04033800d4020000eb
:020000040000fa
:04033c00d4020000e7
:020000040000fa
:04034000d4020000e3
:020000040000fa
:04034400d4020000df
:020000040000fa
:04034800d4020000db
:020000040000fa
:04034c00d4020000d7
:020000040000fa
:04035000d4020000d3
:020000040000fa
:04035400d4020000cf
:020000040000fa
:04035800d4020000cb
:020000040000fa
:04035c00d4020000c7
:020000040000fa
:04036000d4020000c3
:020000040000fa
:04036400d4020000bf
:020000040000fa
:04036800d4020000bb
:020000040000fa
:04036c00d4020000b7
:020000040000fa
:04037000d4020000b3
:020000040000fa
:04037400d4020000af
:020000040000fa
:04037800d4020000ab
:020000040000fa
:04037c00d4020000a7
:020000040000fa
:04038000d4020000a3
:020000040000fa
:04038400d40200009f
:020000040000fa
:04038800d40200009b
:020000040000fa
:04038c00d402000097
:020000040000fa
:04039000d402000093
:020000040000fa
:04039400d40200008f
:020000040000fa
:04039800d40200008b
:020000040000fa
:04039c00d402000087
:020000040000fa
:100400008f8a20000e7f24000e018800000000006b
:10041000000020000000e000020032000001200087
:100420002002880014000700610007000000e000bf
:1004300003003a00a07922000100200002003700ea
:100440000000200001002000810f70000100320038
:1004500014000700000020000000e000020032004d
:1004600000000200000000008013020000000000f5
:100470000040da000000fe004440a900802820006f
:100480000000e0000300320000002000a00188000e
:100490004440a800000006008a1f78008b1f7800e7
:1004a0000000060091018800800478000000eb0045
:1004b0001a003700e284440032a0b4009905ba0063
:1004c000e284440032a0b4009906ba00e2844400f9
:1004d00032a0b4000006eb00476fde00fd07b2005b
:1004e000636ce10003003a00ebff07000000eb0043
:1004f0000a003700606ce10004003a00005deb0088
:100500008b05e900fdff3e00040037006168e10053
:10051000010032000086eb000b00070019c7ba008b
:100520001905ba000e04e00003003a000a00e000da
:10053000e0ff3a0000000600fe07b2009e018800be
:100540008a047800f5ff3700395dba008b05e900b1
:100550000c003200295dba008b05e900080032006a
:100560000c00e00003003a00e284440032a0b40032
:10057000f5ff370019ddba008b05e900faff3a00f4
:100580008904e800e184440032a0b40000000600c1
:10059000b61b0400000000000000fa008460a900ff
:1005a0000080fa00004006000040da000000fe0073
:1005b000000005003200f800023b8800910188002d
:1005c0000008bb000500fc0051052000313b8800fd
:1005d000a10a2000313b880061e7a800000000006c
:1005e000000000003200f900000006000400a10035
:1005f000010037000400a0003200f80091018800db
:1006000011002400013b8800f10f20003208bb00dc
:100610000400a700b20078000198bb008301e90044
:10062000faff3a00680151000400a7006801510078
:10063000680050001208bb00e2ff3700f30f2000f3
:100640003200f8009101880031002400013b88004d
:100650000208bb000388bb00daff37003200f80055
:10066000003b8800d7ff37003200f8009101880076
:1006700080027800620040003549ba00e0804800fe
:100680003204e0000410a700100032008301e900ea
:100690000e0032002549ba003204e0000410a70021
:1006a0000a0032008301e900080032000408a300b8
:1006b000eeff320015c9ba003204e0000410a700b2
:1006c000020032008301e900e8ff3a003200f9003d
:1006d000000006006022b800060220000000d000e2
:1006e0008180d2000482d2008582d2000000a00066
:1006f0000202520083825a000300310002024200cb
:1007000083824a000000a1000603e900f3ff3a00db
:10071000000006000000fa0068815700cfb897007b
:10072000460207000080fa00000006006a00070089
:10073000c2000700730107009b010700f4000700d7
:100740009602070041023700889fbe008a9fbe00c4
:10075000800478000200e0005b0032000140780075
:10076000814c780082814400f1f99f00e20f510032
:100770005500360091449800a1449800e1f99f008b
:10078000d1f99f00e60f51004f003600b1449800a8
:10079000c1f99f00e80f51004b0036000905ea003f
:1007a000630565000a8444000a055100c1ff2f005b
:1007b000010565000080fb008000eb0012102000a6
:1007c0001310200082050700008cbe000a014400bf
:1007d00060b99f0071b99f00e80f55003a003600dc
:1007e00020049800310498004004980051049800b7
:1007f00020b99f0031b99f0040b99f0051b99f00b7
:10080000f80f55003000360060049800710498001d
:10081000000c9800110c9800200c9800310c9800e6
:10082000400c9800510c980020b19f0031b19f00fe
:1008300040b19f0051b19f0060b19f0071b19f0016
:1008400000b99f0011b99f00640164007801410064
:1008500002044400020555006011b8000203be0006
:100860000002be000403be006022b8000000720057
:1008700081807200020173008381730010003700d1
:10088000009cbe000294be004004980051049800f1
:100890006204980073049800000c9800110c9800f2
:1008a000220c9800330c9800400c9800510c9800d2
:1008b000620c9800730c98000a02b1000802b000a4
:1008c000ff0f5500eeff3e00090078004f05be0007
:1008d0004f04be0000000600ec874700889fbe0062
:1008e0008a9fbe008c9fbe008e1f78000006780095
:1008f00001047800180790002805900098067800f9
:10090000cdb79f00b80590003202be002203be00a2
:100910000400be000601be004f18de006011b800e2
:100920008000eb00d0b79f00e1b79f00f2b79f00b7
:1009300083bf9f00800478000900e00006003200b9
:100940006000b8006011b8000402500085825800b1
:1009500006035900878359000e00e00002003500ad
:100960000d10a100cdb79f000900e00005003a007e
:100970004fb097000028a30002003a000038a300ff
:10098000020032008a00e900010037008a00780086
:10099000f8815700a20020000800780086000700b8
:1009a0000900e00003003a00cfb097000128a3003f
:1009b000080032000000e90000814500b1c2b30028
:1009c0000900e00001003200d1c2b3000149780003
:1009d000050037000138a300030032000000e900e1
:1009e00001c2b30081757800480190000201e9005e
:1009f00000015100808045004fb297008a017800c5
:100a00000c007800300207009c0090000188a300d1
:100a10000400320098009000810f500001003d005a
:100a2000010078004f0778004f06be004f05be005a
:100a30004f04be00cf00b100000006000200fa0023
:100a4000889fbe008a9fbe00800578000104780060
:100a500002007800180190002805900098007800a6
:100a6000b1bf9f00b80490000200e0000200350012
:100a70000110a100b1bf9f00ea8157008200200051
:100a80008a0078003002be002003be000800780013
:100a9000490007003fb99700f000610003003200f1
:100aa0000000e90001c3b300817478003fb99700ea
:100ab000e8006100030032000000e90001c2b30059
:100ac00081747800480190000201e90000015100a2
:100ad000808044003fba97008a0178000b007800bc
:100ae000f90107009b0090000188a3000400320078
:100af00098009000810f500001003d000100780037
:100b00004f05be004f04be000080fa000000060042
:100b1000ea874700889fbe008a9fbe008e1f78002c
:100b200000047800030078007287570084e22600f2
:100b300055c72600049fbe00c3962200030f78000d
:100b40006c875700004feb0011059000a104900046
:100b5000910578000200e0000200320002077800f0
:100b600001003700728757000000e00002003a00e1
:100b70000e007800ea0307000a00e00003003500d9
:100b80008a0f5000010036000a0078000b0278003e
:100b900089017800000178008e0078000800780054
:100ba000c90107004f0778004f05be004f04be0083
:100bb000af00b10000000600f4874700889fbe0028
:100bc0008a9fbe008c9fbe008e1f78000605be0067
:100bd0000404be0081bf9f0082b79f00f3b79f004f
:100be000b0009000e1b79f001301780092b79f001a
:100bf00090069000400090000000e9000006780098
:100c00000d00e00001003d001d0020008040eb00d1
:100c1000efb19700817178001e0020001f0037009f
:100c20000c06e9000fb09700cf80de006109b90023
:100c3000a0b79f00b1b79f00c2b79f00d3b79f0076
:100c40000203be000002be000800be000a01be0092
:100c500005050700000778000e4078000043b0004b
:100c6000efb0970080707e008d06e9000fb9970005
:100c70000201e90082bf9f002fb29700bfb2970028
:100c80004fb39700dfb397000800be000a01be0013
:100c9000ee0407000205be000004be000c00e000e8
:100ca0000d003400e00f5400e08f5c00e00f5d00a9
:100cb000e08f5d00daff3a000d00e000d8ff3c0055
:100cc0008fb997000300e000030034001fb09700c5
:100cd0000018a300d2ff3a000e00e00002003a0024
:100ce000ffb097001140a1000c0078004f0778007a
:100cf0004f06be004f05be004f04be004f01b100bd
:100d0000000006000200fa00889fbe008a9fbe0015
:100d100000057800010478000200780018019000b6
:100d2000a804900098007800b1bf9f00b80590001b
:100d30000200e000020035000110a100b1bf9f00d9
:100d4000ea815700a2002000890078003002be002e
:100d50002003be000800780097ff070048019000bc
:100d60000201e90000015100808045003fba970070
:100d7000890178000a007800530107009a0090006a
:100d80000188a3000400320098009000810f5000f9
:100d900001003d00010078004f05be004f04be0079
:100da0000080fa0000000600fa874700889fbe0016
:100db0008a9fbe008c9fbe008e1f78008004780042
:100dc0000104780082057800180190002805900041
:100dd00018077800b80090000200e000020035001b
:100de0000e10a10001003700120020007000670003
:100df000e0b79f00090032003b02be002b03be009b
:100e0000e00f5200e08f5a00e00f5b00e08f5b00c4
:100e1000020032008a86e900010037008a06780065
:100e2000e8026700f5b79f00010032008d06e90077
:100e30003b02be002b03be00e4af9f00f5af9f0056
:100e400086b79f0097b79f00480690000c06e90000
:100e50000040eb0080707e00efb297007fb29700f9
:100e60008903780081047800d8af9f0002047800dd
:100e70008bbf9f008a057800034578002a00370061
:100e80000c06e9006fab97006f006300e90f50009c
:100e900002003c000003b000010037007005b00004
:100ea0000a03fb001604b100f90f53000c003e00ca
:100eb000000378000650a0001606b100f90f530099
:100ec00007003e00b4b79f00a5b79f00c7b79f00bb
:100ed00032030700cfb39700afb297003fb297003d
:100ee00080747e000804e9008d06e9006fa8970071
:100ef000ffa897000fb197009fb197004600200010
:100f00008301d1000281d3008180d3000080d3000f
:100f10000603e900faff3a00e0af9f00f1af9f003f
:100f200082b79f0093b79f00e10f56000f00340077
:100f30006fa89700ffa897000fb197009fb1970087
:100f4000e00f5000e08f5800e00f5900e08f59008b
:100f5000cbff3a000800e000c9ff3c000d00e000b4
:100f6000020034000e18a300c5ff3a008900780083
:100f7000f4b79f00870478005fac97008a4178003f
:100f80000b0578008fbd97000500e00010003200cf
:100f90003b02be002b03be00e4af9f00f5af9f00f5
:100fa00086b79f0097b79f00e00f5200e08f5a006e
:100fb000e00f5b00e08f5b00050032000c06e900eb
:100fc00083707e000c06e90000c3b30080707e00d1
:100fd000ffb297000500e000030032000c06e900b4
:100fe00000c2b30080707e00480190000201e90059
:100ff0000c0151008c8040000e0278008a017800bc
:1010000009007800b0000700990090000188a30053
:101010000400320098009000810f500001003d0054
:10102000010078004f0778004f06be004f05be0054
:101030004f04be00af01b10000000600820178003d
:1010400001017800f1ff2700db023700840820004f
:10105000848f50001d0032000d003c001408200059
:10106000848f50002700320002003c00040820005a
:101070000400370024082000848f50003400320020
:1010800044082000848f500043003a0036003700a7
:10109000040a2000848f50002700320004003c0026
:1010a00004092000848f50003b003a0028003700dc
:1010b000020c2000828f50002f003200020f20000f
:1010c000828f500034003a002b0037009380e900f3
:1010d0000200e00005003200810978001102fb00e7
:1010e000cfa2de00612bb90028003700810978000b
:1010f000114278000482fb008002eb006033b800ec
:101100002200370013027800e40052000200e000e1
:1011100005003200810978001102be004fabde00ed
:101120008603780019003700810978001102be009b
:101130006033b800150037009380e900810978001a
:1011400011027800cfa2de00612bb9000f0037003a
:1011500093027800e8805200810978003102be00d5
:101160002103be00090037009380e9000200e0007f
:1011700002003200f1ff37009380e9008109780016
:10118000110278008002eb006033b8000498be00c2
:101190000690be0010000500000005004408200075
:1011a000848f50002500320008003c001408200005
:1011b000848f50001400320024082000848f5000d7
:1011c00024003200040820000c003700040920002d
:1011d000848f50001f00320004003c00840820006f
:1011e000848f500024003a000e003700040a2000cb
:1011f000848f500011003200040c2000848f5000b6
:101200001d003a000d0037009380e9008109780045
:101210009100780001087800cf91de008288be003e
:10122000140037009380e90081097800910078006c
:1012300001087800824878000e0037009380e900aa
:101240008109780091007800010878008208780010
:10125000080037009380e900810978009100780048
:10126000010878006112b900612bb9008498be00b2
:101270008690be001000050000000500889fbe009b
:10128000000478004800900082047800808f5400a9
:1012900001003600800478000901780058009000b1
:1012a0001802070058009000090040005004980000
:1012b000c800900089845000490498000048eb0061
:1012c0004f04be0000000600f2874700889fbe0062
:1012d0008a9fbe008c9fbe008e1f7800800478001d
:1012e0000105780002047800830578006107620038
:1012f00002003a008b0f5400080039000801780002
:101300008a00780009007800dcff07008b0f54008a
:1013100002003900880578001e0037000886550055
:101320000c017800f00f5600010036000201200089
:10133000010220007e80570003fd07008c06780024
:101340000500370002012000fe80570009007800e8
:10135000caff0700f0865600ef8f5600f9ff3e00e7
:101360004461de0000ff2f000091b9000201460039
:10137000fe80570009007800c0ff07000e00e00063
:1013800004003a00080178008a007800090078001b
:10139000baff07000b0078004f0778004f06be0029
:1013a0004f05be004f04be002f01b1000000060033
:1013b00000000500000005000000050000017800a5
:1013c0000040eb008080fb0081804000838820008b
:1013d00063c278000404e00003003a009088200013
:1013e00060c078000000060092017800934f520020
:1013f00004003a009088200060c078000309e800eb
:10140000010037000040e800ea4f5000edff3600d1
:1014100000000600f6874700889fbe008a9fbe0036
:101420008c9fbe008e1f78000005780001047800b4
:1014300083057800040678000000eb00c0b79f0029
:101440008080eb00d1b79f00e0b79f00f2b79f000c
:101450000008200080bf9f009800780001007800fd
:101460008004eb00010037008904e8003041780077
:101470000204e0000300320053c2b300834f510066
:10148000f9ff3a000900e000040032000901780089
:101490000a00780079ff0700188c440018077800cc
:1014a00050c2b3009e4f10003f013a000e07e80003
:1014b0000e0c780010003700cfb097000100a0009c
:1014c0000b003700cfb097000110a00008003700d4
:1014d000cfb097000120a00005003700cfb09700e3
:1014e0000130a00002003700cfb097000140a000fb
:1014f000c1b79f00000ce800180078009040780009
:10150000b2c2b30082cf5000f1ff320007003c00ae
:1015100002c2b30082cf5000f0ff320032c2b300eb
:1015200082cf500007003a00efff3700d2c2b3006d
:1015300082cf5000e0ff320002c3b30082cf5000e0
:10154000e0ff3200a2c2b30082cf50000d003a008b
:10155000000ce8001c80e900000e78001000780004
:10156000e0b79f000000e0000f003d00cfb0970003
:101570000100a200c1b79f000000ea00e0b79f0091
:101580000900370039010700e0b79f00010037006c
:10159000000ce800180078009000fb000103b10087
:1015a000e98f5000faff36004fb097000008a30003
:1015b000020032000010a100c0b79f0018007800a0
:1015c000e1c2b30090cf100016003a008000eb009b
:1015d000d1b79f000000e800000c7800a1c2b30062
:1015e00090cf100006003a00000ce8001c80e900d3
:1015f000000e780010007800d0b79f000900370077
:101600001a010700d0b79f0001003700000ce80066
:10161000180078009000fb000103b100e98f500032
:10162000faff36000800780064ff07008046780063
:10163000180078001000fb005101070091062000ff
:10164000810f50003800320012003c00410620009b
:10165000810f5000340032000a003c0011062000c7
:10166000810f50002000320031062000810f500011
:10167000a000320051022000810f5000bc003a004f
:10168000b400370071062000810f5000b8003c0004
:101690008800370001072000810f50005c003200f5
:1016a00007003c00e1062000810f50007a00320064
:1016b000f1062000810f5000ad003a0039003700dc
:1016c00051072000810f50002700320081072000c1
:1016d000810f50004200320031072000810f50007e
:1016e000a3003a008f0037008d80fb000c017800ca
:1016f00000fe2f000f004000540107000000e00032
:10170000a800320018007800000ce8009041780032
:1017100002fe2f000f014100f88057000a007800f8
:1017200024ff07000e0037008d80fb008c0178003d
:101730001200200000fe2f000f00400043fe0700b3
:101740000000e00097003200180ce80002fe2f00b5
:101750000f014100f88057000a0078005efc070086
:1017600080844400900037008d80fb008c0178005d
:101770000001eb0000fe2f000f00400033fe0700c9
:101780000000e00087003200180ce80002fe2f0085
:101790000f014100f88057000a00780059fd07004a
:1017a000efff37008d80fb008c0178000001eb001b
:1017b00000fe2f000f00400024fe07000000e000a4
:1017c00078003200180ce80002fe2f000f014100e3
:1017d000f88057000a00780098fc0700e0ff370007
:1017e0008d80fb008c0178000001eb0000fe2f00d3
:1017f0000f00400015fe07000000e0006900320005
:1018000018007800000ce800904178001c003700b8
:101810008c0178000001eb00010f200000fe2f007a
:101820000f00400009fe07000000e0005d003200ec
:10183000180ce8000fb097009fb097002fb19700e9
:10184000bfb19700e00f5000e08f5800e00f590043
:10185000e08f590009003a00cfb597006fb49700a8
:1018600000882000ae0007000b0278008801780095
:1018700000017800018820004700370083c7b300cb
:1018800002fe2f000f014100f88057000a00780087
:1018900045fd0700b2ff37000b8144008d80fb003f
:1018a0008c01780000fe2f000f0040003bfe070077
:1018b0003c0037008d80fb000c01780000fe2f00fb
:1018c0000f004000e10007000000e000350032009a
:1018d00018007800000ce8009041780002fe2f000c
:1018e0000f014100f88057000a007800b1fe0700a0
:1018f0009bff370000c8b30080cf560029003a0094
:10190000180ce8001c80e900000e780010407800f8
:10191000e0df9f0013002000e2fd2f000f014100d7
:101920000800370000c8b30080cf56001d003a0001
:10193000180ce8001c80e900000e78008001eb0024
:1019400010017800f88057000a00780070fc07004a
:1019500083ff370000c8b30080cf560011003a0063
:10196000180ce8004fb29700efb19700080037005d
:101970000e0c78000000eb00c0b79f00e0b79f009e
:101980000080eb00d0b79f000002eb0084017800dc
:1019900012002000618820000a0078004afe07003b
:1019a0006fff3700180ce800090078004f07780037
:1019b0004f06be004f05be004f04be006f01b100d0
:1019c000000006008200fa00889fbe008a1f78008f
:1019d0000005780082047800c13f9f000004eb00fe
:1019e000100037000902780088017800a2f72f0064
:1019f0000f01410081f72f008f8040000a0078001e
:101a000084fe070008004000880f500004003d00dd
:101a1000b0042000304588000084eb00040037004b
:101a2000000478004f3897001004e000edff3a0002
:101a3000080078004f0578004f04be000080fa00cf
:101a40000000060080007800100020000202200044
:101a5000828f500004003200e9805000e48f500073
:101a6000010036000000eb0000000600889fbe0069
:101a70008a1f7800000578000a04780098447800ee
:101a80000805e8000900fb00eeff07000000e00089
:101a9000f9ff3a00b0c2b30080cf54000500320015
:101aa000d0c2b3008000eb0080cf540005003a00a4
:101ab000020037008000eb00010037001100200019
:101ac0000804e8000000eb00030037006a02b900d8
:101ad000020052000003b0003801fb0003fd2f009c
:101ae00082814100e98f5100f8ff36000100e000db
:101af00001003a000000ea004f0578004f04be00e4
:101b0000000006008001780002003700b15978001b
:101b10000201e9000200e000fcff3a0000000600bc
:101b200080007800040037003104e00002003a0031
:101b30000000510000000600010178000108a30028
:101b4000f9ff3a008101780031017800f4ef2f00ad
:101b5000020242000281ea00020162000408280039
:101b600004016100f7ff3200830078000101780072
:101b70003104e000fdff3a000000510000000600c3
:101b8000f1fb2f0080804000f98f500001003e00e3
:101b90000050a00000000600f9ff3700f1f92f0007
:101ba00080804000f98f500001003e00f005b20037
:101bb00000000600f9ff3700f28747008e1f78000b
:101bc00002027800030178000000e0000200320009
:101bd0000007780001003700728757008002eb0091
:101be0000100e000010032008102e900708057002e
:101bf000060009000018eb000080eb0080bf9f008a
:101c00002310200093bf9f00aebf9f00b1bf9f0075
:101c1000c5bf9f000100e00003003d00b1042000ab
:101c20003145880006003700004feb00eebf9f00f3
:101c3000debf9f00840078007080570022000700fc
:101c40004f0778002f01b10000000600881f7800c0
:101c50000004780000082000808f50001700350035
:101c600010082000808f50000b0034003008200046
:101c7000808f500011003a00920078006880500078
:101c8000000978003002be002003be00049cbe00a4
:101c90000694be000700370092027800648052006c
:101ca000000978001000be0015000700009cbe006f
:101cb0000294be0010002000010037000000eb007d
:101cc0004f047800000006000200fa00881f780028
:101cd00000047800e2bf9f0064815700080078008c
:101ce00038ff0700980090000148a300010032006f
:101cf0000080eb004f0478000080fa00000006002e
:101d0000810378001d0007000001be006000b800dc
:101d10000478a30013003a006220e10015003e00a1
:101d20000d0039008301d1000281d3008180d300ee
:101d30008301d1000281d3008180d3008301d100cf
:101d40000281d3008180d3000538b000c42add00b1
:101d5000f300b2008381720007f0a70003f0a00037
:101d60000000060083ff2700020020006110b90078
:101d7000f9ff370003ff2700f7ff3700c70ade002f
:101d8000f107b200f50fb20008003200e1cf4200c7
:101d9000020032000170a00024000500810f7000d5
:101da000010032000408050044000500810f7000a6
:101db00002003a00140005008502e900000040001e
:101dc00081c04800fcff3b000170a000240005001a
:101dd000020ab900001bb9000200b80081004200ed
:101de0008100430000000600889fbe008a9fbe005d
:101df00030044200b0844a0030054b0090854b000f
:101e00006000b1000898be000a90be000440e100e6
:101e100005c8e10006d0e10007d8e100020031006a
:101e2000680040001008e8004f05be004f04be00e7
:101e300000000600889fbe008a9fbe003004be00de
:101e40002005be000418540005985c0006185d00cb
:101e500007985d00110020000440e10005c8e10082
:101e600006d0e10007d8e100010039008000eb0056
:101e7000108810004f05be004f04be000000060091
:101e80001200fa00889fbe008a9fbe008c9fbe0091
:101e9000e0b79f00f1b79f0082bf9f0093bf9f00f4
:101ea0000605be000404be000000eb00d0b79f0092
:101eb000c0b79f00b0b79f00a0b79f0090b79f002a
:101ec000000678005fb19700cfb097008201410013
:101ed0003fb097000200e00004003d00370007001b
:101ee0007e805700c0ff0700030037003300070063
:101ef0007e805700cfff0700dfb697000d00e0009f
:101f00000c0035006fb29700ffb297000fbb97002f
:101f10009fbb970010002000010020006011b80056
:101f200000027200818272000203730083837300d7
:101f30001b0007000c06e80001042000810f56007a
:101f4000e0ff3a000d00e00004003d000802be0082
:101f50000a03be007e805700a3ff07005fa897001a
:101f60000000e00005003a001fb29700afb29700f2
:101f70003fb39700cfb39700090007006fb09700f9
:101f8000ffb097000fb997009fb997004f06be00aa
:101f90004f05be004f04be000080fa00000006009e
:101fa0000100070000000600a4b79f00b5b79f001e
:101fb000c6b79f00d7b79f00000006004f09de009c
:101fc00082817100b3b79f004f01de008180400025
:101fd00082807000a1b79f008fb097004f09de008c
:101fe000000040000200700090b79f007fa897009b
:101ff0004f01de00818040008280700081b79f0029
:102000000d0007004f3ade000000400004007000a1
:10201000f0af9f00080007000402420085824a00da
:1020200006034b0087834b00dfff07000802be005a
:102030000a03be00000006002fb29700bfb297004f
:102040004fb39700dfb3970000000600881f7800a9
:1020500018002000881f780089ff07008f87e9009b
:102060004f04780000000600801feb0084ff07008b
:102070008f87e90000000600889fbe008a9fbe008f
:10208000e00f5000e08f5800e00f5900e08f59003a
:102090000c003d006044b8006055b80000005400da
:1020a00081805c0002015d0083815d0018002000da
:1020b0001500070008003d00180007000004eb00b1
:1020c000050037000004eb000f00070002003d0090
:1020d0001200070018002000dcff07000800e000e5
:1020e000060032006022b8006033b80000005200e1
:1020f00081805a0002015b0083815b004f05be00b6
:102100004f04be0000000600e00f5200e08f5a00ae
:10211000e00f5b00e08f5b00000006006044b80049
:102120006055b8000402540085825c0006035d001f
:1021300087835d0000000600889fbe008a9fbe0066
:102140008c1f7800e00f5000e08f5800e00f59001e
:10215000e08f59000d003d006044b8006055b800a4
:102160000000540081805c0002015d0083815d00fd
:102170001c0020000820e10009a8e1000ab0e100ed
:102180000bb8e1000d003d00080037000006eb0031
:10219000e00f5200e08f5a00e00f5b00e08f5b0021
:1021a00006003d006044b8006055b80004025400c9
:1021b00085825c0006035d0087835d00aaff07003f
:1021c0000c00e000060032006022b8006033b80066
:1021d0000000520081805a0002015b0083815b0095
:1021e0004f0678004f05be004f04be0000000600f9
:020000040000fa
:1021f000434100004c49000042520000415400009d
:10220000494e00004700000053540000414e0000ba
:1022100044420000590000005052000045530000a5
:1022200053200000434500004e540000455200007a
:10223000004500004e54000045520000204b0000b5
:102240004559000000540000494d000045200000a1
:102250004f55000054000000555300004552000047
:102260002025000064000000574500004c4300009a
:102270004f4d0000453a0000004b0000455900005a
:1022800020570000524f00004e470000004d000054
:10229000414900004e2000004d4500004e55000011
:1022a000003e0000204c00004f4300004b20000087
:1022b0005359000053540000454d00000020000019
:1022c000204c00004f4300004b20000053590000f9
:1022d00053540000454d0000003e0000204d00001a
:1022e000414e0000414700004520000055530000ca
:1022f0004552000053000000202000004d41000026
:102300004e410000474500002055000053450000a5
:1023100052530000003e00002043000048410000ee
:102320004e470000452000004d590000204b0000a2
:1023300045590000002000002043000048410000f3
:102340004e470000452000004d590000204b000082
:1023500045590000004c0000454e00004754000065
:10236000483f0000003e00002034000020440000f0
:10237000494700004954000053000000202000009d
:102380003420000044490000474900005453000035
:10239000003e0000203800002044000049470000b3
:1023a00049540000530000002020000038200000a5
:1023b0004449000047490000545300000045000014
:1023c0004e54000045520000204e000045570000ca
:1023d0003a0000005341000056450000442100002f
:1023e0000053000059530000544500004d200000e8
:1023f0004c4f0000434b00004544000000570000d4
:1024000041490000542e00002e2e0000005500000f
:1024100053450000522000004c4900005354000076
:10242000003c0000205500005345000052200000f1
:102430002530000032640000203e00000053000000
:102440005441000054550000533a00002041000060
:10245000435400004956000045000000535400005a
:1024600041540000555300003a200000454d000043
:1024700050540000590000004e4500005720000055
:102480005553000045520000202500003032000066
:1024900064000000454e000054450000522000003a
:1024a000434f0000444500003a000000555300002f
:1024b0004552000020410000444400004544000013
:1024c0002100000055530000455200002025000067
:1024d00030320000640000003e200000454400004f
:1024e00049540000204b0000455900000020000026
:1024f0002045000044490000542000004b450000e6
:10250000590000003e200000444500004c450000fa
:1025100054450000205500005345000052000000c3
:1025200020200000444500004c45000054450000b8
:1025300020550000534500005200000044450000b3
:102540004c450000544500004421000000000000fc
:102550000000000000000000003e000051490000a3
:10256000453e0000004100007f4000000071000077
:10257000494900004946000041490000494900001e
:10258000360f000008080000087f00004f490000d7
:1025900049490000313e000049490000493200002d
:1025a00001010000790500000336000049490000e0
:1025b0004936000026490000494900003e7e0000df
:1025c00011110000117e00007f4900004949000000
:1025d000363e000041410000412200007f410000e2
:1025e000412200001c7f00004949000049410000d1
:1025f0007f09000009090000013e00004149000078
:10260000497a00007f080000080800007f000000f1
:10261000417f00004100000020400000413f0000d9
:10262000017f000008140000224100007f400000ec
:1026300040400000407f0000020c0000027f0000cc
:102640007f040000081000007f3e000041410000b0
:10265000413e00007f09000009090000063e00001d
:1026600041510000215e00007f090000192900008f
:1026700046460000494900004931000001010000c0
:102680007f010000013f000040400000403f00008b
:102690001f200000402000001f3f000040380000c5
:1026a000403f0000631400000814000063070000ae
:1026b0000870000008070000615100004945000053
:1026c000430800001c3e00001c0800000041000000
:1026d00022140000080000006060000000000000fc
:1026e0005345000043000000434100004c490000f6
:1026f0004252000041540000494e000047000000d3
:020000040000fa
:102700004e00fa00889fbe0020302300103a880057
:102710004427ef00e50f07006c120700b212070014
:10272000080707009d0f07001668ef00c0090700a3
:1027300000c0eb0016e8b700820f290041c1b300ca
:10274000a0c0b3009c1107000000eb00000f780050
:10275000020037000c1007001e0fe800900f200049
:102760009e007800808f5000faff34001668ef005a
:10277000af0907000000eb00100798000080eb0095
:102780002007980010002000401798008e00780065
:102790006103b000030009008018eb001000200066
:1027a000300798000000eb00400798006000b80078
:1027b000500798006107980092408000a340800075
:1027c00072079800030f98000080eb00100f98002c
:1027d0000000eb00200f98006000b800300f980058
:1027e000410f98000000eb00500f980000c0eb0074
:1027f00016e8b7004210290041c1b300a0c0b300e1
:102800006d110700c210290031c2b300a0c0b3008f
:10281000691107000041eb008040eb0000c0eb00b5
:1028200001120700d80f0700f0100700501798009a
:1028300092408000a34080007e0090008e089000af
:102840000001510081815900f05227000100200051
:10285000800f5100818f5900320036003e009000f9
:102860000000e0000e003200970307000000eb00bc
:10287000300798000000eb0010079800924080009d
:10288000a340800072079800030f980040002000ca
:102890002007980020032000d90d0700b30137005e
:1028a00010002000300798000000eb00100798008f
:1028b0000000eb00500f98000000eb00400798006c
:1028c00092408000a340800072079800030f980098
:1028d0001668ef005609070000c0eb0016e8b700c5
:1028e0004210290041c1b300a0c0b300321107005b
:1028f000c210290031c2b300a0c0b3002e110700de
:102900000041eb008040eb0000c0eb00c611070067
:10291000de1190002307980020032000b80d070067
:10292000920137003e0090000000e0001f003200de
:102930005e109000e40f500017003a002e00900047
:10294000e10f400014003a000000eb00300798004f
:102950000000eb001007980092408000a340800028
:1029600072079800030f98001668ef0030090700ff
:1029700000c0eb0016e8b70092112900a1c0b30017
:10298000a0c0b3000c1107000041eb008040eb0039
:1029900000c0eb00a4110700de119000230798008f
:1029a00020032000960d0700700137004e009000b4
:1029b0000000e0003e00320092408000a340800012
:1029c0005e009000ee0090000000510081805900f0
:1029d00060179800711798006e109000fe1090001c
:1029e000823e2000030020003af707000000780034
:1029f0006f001000001f98000e1890000000e0000b
:102a000023003c000000eb00400798000000eb00b2
:102a1000100798000000eb00500f98000080eb00ba
:102a2000100f98001668ef000109070000c0eb00c6
:102a300016e8b70032122900f1c0b300a0c0b300fd
:102a4000dd100700007d20006d0d07001668ef0007
:102a5000f708070000c0eb0016e8b7009211290044
:102a6000a1c0b300a0c0b300d31007009240800003
:102a7000a340800072079800030f9800de119000b9
:102a800023079800200320005d0d07003701370061
:102a90008e1890001e089000808f500004003200b5
:102aa0000e1890000e1107008e189000110f98005c
:102ab0005e0890000000e0003f0032002e08900009
:102ac0000000e0003c00340092408000a340800001
:102ad0003e089000ce08900000005100818059000f
:102ae000101f9800211f98001e199000ae19900029
:102af0007025200001002000800f5100818f5900b7
:102b0000050036000000eb00500f98002e089000e2
:102b1000c3100700280037001e189000ae18900060
:102b2000c212200003002000eaf60700000078002f
:102b3000610060008004eb00000478000800be0023
:102b4000e00f5000e08f580003003a002e0890007c
:102b5000b3100700180037001668ef000000eb0004
:102b6000600f9800110037000000eb00700f980014
:102b7000080037007e089000fe0040006e089000bc
:102b80006a004000590707007e0890000000e80036
:102b9000700f98007e089000e70f5000f5ff34009a
:102ba0006e0890000000e800600f98006e0890002a
:102bb000fd0f5000ecff34005e109000e10f40006c
:102bc000d80032002e009000e10f4000d5003a00fe
:102bd00092408000a340800072079800030f980085
:102be0001e0090000000e00009003a004e00900036
:102bf0000000e00006003a001000200040079800a6
:102c000092408000a340800052079800630798001c
:102c100000c1eb008040eb000040eb000211070018
:102c2000604080009e009000808f500014003d00a6
:102c30005e10900080407800620320000e01410089
:102c40001e00900000004100014878001e00900026
:102c50000000e800100798001e00900070100700a8
:102c60009e019000230f980010002000500f980044
:102c700092408000a3408000320f9800430f9800dc
:102c80001e009000e30f5000a40034000000eb0091
:102c9000400798000080eb00001798000000eb0050
:102ca00010179800390037001e1090006b00b90013
:102cb00000007800b1812000614078000004e0004d
:102cc0002f0032001e1090006b00b9000000780049
:102cd0000080e800a1812000614078008080fb0036
:102ce0001e009000808f500024003a001000200049
:102cf000201798000000eb003017980015003700ef
:102d0000610320008e8040003e1090000080400053
:102d1000104178001e1090006b00b9008000780010
:102d20003e109000008040000080e800b18120004b
:102d300061407800804f5100030032000000eb003a
:102d400020179800070037003e1090000000e800b0
:102d500030179800be1090001e009000808f500029
:102d6000e7ff35002e1090000000e0000400320064
:102d70009e11900003179800070037000000000024
:102d80001e1090000000e800101798001e10900020
:102d9000e40f5000c4ff34001668ef002408070059
:102da00000c0eb0016e8b7000e109000e10f4000e5
:102db000380032008e109000814088001828ef0003
:102dc0000e1090006b00b90000007800a181200077
:102dd000614078008080fb00e00320000e0040008e
:102de000811f7800c1122900811f780049f6070071
:102df000e487570042132900a1c0b300a0c0b3006c
:102e0000ed0f0700e00320000e00400000017800f5
:102e100091c1b300a0c0b300e70f07000041eb0071
:102e200080c0eb000040eb007f100700007d200019
:102e3000730c07004e0007001000200030079800b8
:102e400092408000a340800072079800030f980012
:102e50001668ef00f607070000c0eb0016e8b700a1
:102e60004210290041c1b300a0c0b300d20f070037
:102e7000c210290031c2b300a0c0b300ce0f0700ba
:102e80000041eb008040eb0000c0eb006610070043
:102e90001e003700d2132900f1c0b300a0c0b30058
:102ea000c50f07000041eb008040eb0000c0eb00c5
:102eb0005d100700c04080000000e800c0408800ae
:102ec000c0408000e20f500002003400d101070032
:102ed00002003700007d2000490c07001668ef0053
:102ee000d307070000c0eb0016e8b70092112900d5
:102ef000a1c0b300a0c0b300af0f07009240800094
:102f0000a340800072079800030f98000000eb00b8
:102f1000100798000000eb00500f9800a00f200051
:102f2000370c07005e109000e10f40000a003a00e5
:102f30002e009000e10f4000070032004e1090007c
:102f40000000e000040032000041eb008040eb0094
:102f500000c0eb0034100700de119000230798003a
:102f600020032000260c07002efe37002dfe370020
:102f70000e00fa000000eb00000f780010002000a7
:102f8000100798000080eb00200798001000200038
:102f90003007980092408000a340800042079800cc
:102fa0005307980001003700f70d07000f0f0700c7
:102fb000e10f4000fcff3a008c003700f20d0700e3
:102fc0000a0f07006007980092408000a34080002d
:102fd0004e009000de0090000001510081815900f8
:102fe0000053270001002000800f5100818f5900fd
:102ff00082003e003e0090000000e00036003200fb
:103000001668ef008a07070000c0eb0016e8b7005b
:103010007214290051c0b300a0c0b300660f0700ae
:103020001e0078000000e00005003a00121529009b
:1030300091c1b300a0c0b3005f0f070004003700c8
:10304000f215290091c1b300a0c0b3005a0f0700c8
:10305000804080006b00b90000007800a181200052
:1030600061407800e14f50000d003a001e007800ea
:10307000e10f500005003a00d216290081c2b300ca
:10308000a0c0b3004c0f070011003700c217290081
:1030900081c2b300a0c0b300470f07000c00370087
:1030a0001e007800e10f500005003a00b218290018
:1030b00081c2b300a0c0b3003f0f07000400370077
:1030c000b219290081c2b300a0c0b3003a0f0700b3
:1030d0000000eb00300798006e009000e10f400008
:1030e0003e003200ee0090002e009000808f5000d5
:1030f0003a00320092408000a340800042079800ce
:10310000530798006e0090000000e00003003200ba
:103110006e009000e20f50000a003a001e00780096
:1031200000f0a7000000ea00000fe9001e00780090
:103130004f00de00000f78001000200030079800dc
:10314000240037006e009000e40f500003003200ae
:103150006e009000e10f50001e003a001e00780043
:103160000000e00003003a000000eb0010079800a8
:1031700018003700804080006b00b9000000780024
:10318000a181200061407800e14f500003003a0027
:1031900060bb210000000100080037008040800073
:1031a0006b00b90000007800a18120006140780028
:1031b0000080fb00ff010700d10c07001000200079
:1031c0003007980092408000a3408000420798009a
:1031d0005307980060092000890b0700ee0190005a
:1031e0002307980020032000850b07001e00900095
:1031f0000000e00071ff3a0001003700000000000d
:103200000080fa00000006001e00fa0040002000c6
:10321000000f780010002000100798000080eb00dd
:10322000200798001000200030079800924080008e
:10323000a340800042079800530798000100370020
:10324000510d0700690e0700e10f4000fcff3a0036
:103250005c0037004c0d0700640e0700100f98004b
:1032600092408000a34080004e009000de0090005d
:103270000001510081815900005327000100200006
:10328000800f5100818f5900dd003e003e0090000c
:103290000000e000220032001668ef00e40607009c
:1032a00000c0eb0016e8b700b21a290051c0b30005
:1032b000a0c0b300c00e07001e007800e40f50004d
:1032c00005003a00321b290091c1b300a0c0b30031
:1032d000b90e070004003700e21b290091c1b300ba
:1032e000a0c0b300b40e07001e007800e80f500025
:1032f00005003a00921c290081c2b300a0c0b300af
:10330000ad0e070004003700421d290081c2b30042
:10331000a0c0b300a80e07000000eb003007980023
:103320001e089000e10f4000220032009e0890002d
:103330002e009000808f50001e00320092408000ce
:10334000a340800042079800530798001e08900091
:103350000000e000030032001e089000e20f500061
:103360000a003a001e007800e40f500002003a0004
:10337000800020000100370040002000000f78008e
:103380001000200030079800080037001e08900049
:10339000e40f5000030032001e089000e10f5000bf
:1033a00002003a000000eb001007980060092000be
:1033b000130b07009e0990002307980020032000ac
:1033c0000f0b07001e0090000000e000a1ff3a0074
:1033d0000000eb006007980092408000a34080004e
:1033e00042079800530798001668ef009006070000
:1033f00000c0eb0016e8b700f21d2900a1c0b30021
:10340000a0c0b3006c0e070001003700de0c0700ff
:10341000f60d0700e10f4000fcff3a000080eb00d2
:103420002007980048003700d70c0700ef0d070071
:10343000200f980092408000a34080004e00900032
:10344000de009000000151008181590000532700e7
:1034500001002000800f5100818f59006a003e005a
:103460002e089000e10f400033003200ae089000bb
:103470002e009000808f50002f003200924080007c
:10348000a340800042079800530798002e08900040
:10349000e40f50002b0032002e089000804078008e
:1034a000760147006e00900000004100014878005e
:1034b0006e0090000000e8006007980000c0eb007c
:1034c00016e8b7000000eb00700798000c0037000a
:1034d0007e009000004078006600b900000078008f
:1034e000004078006a404000a2c2b300e1c1b300ce
:1034f000d00d07007e0090000000e80070079800e3
:10350000fe0090006e009000808f5000f0ff3500ac
:1035100000c1eb008040eb000040eb00c20e070052
:1035200040062000b60a07000041eb0080c0eb0017
:103530000040eb00bc0e0700ae0990002307980086
:1035400001003700000000006e0090009e0f500048
:10355000b5ff35009e007800614088000000eb0058
:10356000000f9800140037000e0890009e0f5000c6
:1035700009003d00f60047000e0890000080400062
:1035800090407800e28920000e0890000000410081
:103590000148780005003700e18920000e089000fe
:1035a000008040008040eb00014878000e08900049
:1035b0000000e800000f98000e089000e70f500090
:1035c000e9ff34006040800080007800e08920003e
:1035d000fc0a07001668ef001506070000c0eb00a4
:1035e00016e8b700a21e290091c1b300a0c0b30025
:1035f000f10d0700c05d2000810a070003003700bd
:103600000000000001003700000000000080fa0008
:10361000000006000200fa001668ef00040607002a
:1036200000c0eb0016e8b700121f2900a1c0b300cc
:1036300050c0b300e00d0700f21f290091c1b30094
:1036400050c0b300dc0d0700e0012000000f78003f
:103650000f0037001e007800210e07000041eb002c
:103660008040eb0000c0eb006f0e0700401f200001
:10367000630a070000c1eb008040eb000040eb0054
:10368000690e0700401f20005d0a07001e0fe900b9
:103690001e0078000000e000eeff3c001828ef005c
:1036a0000041eb008040eb0000c0eb005e0e070025
:1036b0001668ef00de05070000c0eb0016e8b70053
:1036c0000080fa00000006000000fa001668ef0013
:1036d000d70507000041eb008040eb000040eb0005
:1036e000510e07000421ef000021ef0021088000a7
:1036f0000003200001007000200888000000240062
:10370000100888008460a9009460a80005e1a80062
:1037100001003700000000000140fe001a0c070005
:10372000320d0700e40f5000faff3a0005e1a9004e
:103730009460a9001668ef00bd05070000c0eb000b
:1037400016e8b70092112900a1c0b300a0c0b300d1
:10375000990d07000041eb008040eb0000c0eb003a
:10376000310e07000080fa00000006002200fa0077
:103770000000eb00000f78001000200010079800f8
:103780000080eb0020079800100020003007980010
:1037900092408000a34080004207980053079800a1
:1037a00001003700f80b0700100d0700e10f400083
:1037b000fcff3a0078003700f30b07000b0d070001
:1037c0006007980092408000a34080004e00900067
:1037d000de00900000015100818159000053270054
:1037e00001002000800f5100818f59006e003e00c3
:1037f0003e0090000000e000260032001668ef0056
:103800008b05070000c0eb0016e8b7007220290006
:1038100051c0b300a0c0b300670d07009e00e800d0
:103820006e004700811f780011212900811f780058
:10383000b8f30700e48757006e00470000017800e6
:1038400091c1b300a0c0b3005b0d07001e0078005b
:103850006b00b90000007800b18120006140780061
:103860000004e00005003200f221290081c2b3000b
:10387000a0c0b300500d070004003700e222290069
:1038800081c2b300a0c0b3004b0d07000000eb00e5
:10389000300798006e009000e10f40003a003200bf
:1038a000ee0090002e009000808f50003600320015
:1038b00092408000a3408000420798005307980080
:1038c0006e0090000000e00009003a001e0fe800c2
:1038d0001e007800e40f5000020034000000eb00ee
:1038e000000f7800100020003007980024003700f7
:1038f0006e009000e20f500009003a001e0fe90030
:103900001e0078000000e00002003d0040002000a2
:10391000000f7800100020003007980018003700d2
:103920006e009000e30f500003003a000000eb002f
:1039300010079800120037006e009000e40f50004e
:103940000f003a001e0078006b00b90000007800fc
:10395000b1812000614078000004e00003003200e3
:103960001e00780006010700020037001e00e80074
:10397000100007001000200030079800e00a070040
:10398000600920009e090700ee01900023079800bf
:10399000200320009a0907001e0090000000e000ac
:1039a00085ff3a0001003700000000000080fa00a7
:1039b000000006003200fa00001f980040002000be
:1039c000000f780010002000100798000080eb0026
:1039d00020079800100020003007980001003700f1
:1039e000690b0700810c0700e10f4000fcff3a0063
:1039f00055003700640b07007c0c07007007980027
:103a00003e0090000000e0002a0032001668ef003f
:103a10000705070000c0eb0016e8b7007c00470070
:103a20008e189000811f7800c1232900811f780023
:103a300038f30700e48757007c0047000001780056
:103a400051c0b300a0c0b300db0c07001e0078001b
:103a5000e40f500005003a00321b290091c1b30069
:103a6000a0c0b300d40c070004003700e21b2900fb
:103a700091c1b300a0c0b300cf0c07001e007800b6
:103a8000e80f500005003a00921c290081c2b300e3
:103a9000a0c0b300c80c070004003700421d290075
:103aa00081c2b300a0c0b300c30c07000000eb004c
:103ab000300798007e009000e10f40001e003200a9
:103ac000fe0090002e009000808f50001a003200ff
:103ad0007e0090000000e000030032007e009000b5
:103ae000e20f50000a003a001e007800e40f500078
:103af00002003a0080002000010037004000200052
:103b0000000f7800100020003007980008003700f0
:103b10007e009000e40f5000030032007e00900011
:103b2000e10f500002003a000000eb00100798007f
:103b30006009200032090700fe009000210798006c
:103b4000200320002e0907001e0090000000e00066
:103b5000a8ff3a000000eb00400798001668ef004d
:103b6000b304070000c0eb0016e8b700a224290048
:103b7000a1c0b300a0c0b3008f0c07000100370044
:103b8000010b0700190c0700e10f4000fcff3a0091
:103b90000080eb002007980039003700fa0a070080
:103ba000120c0700000f98000e089000e10f400073
:103bb0002f0032008e0890002e009000808f500061
:103bc0002b0032000e089000e40f50002b00320052
:103bd0000e08900080407800740147004e0090006d
:103be00000004100014878004e0090000000e8000d
:103bf0004007980000c0eb0016e8b7000000eb009b
:103c0000500798000c0037005e00900000407800dc
:103c10006600b90000007800004078006a4040006b
:103c2000a2c2b300e1c1b300020c07005e00900025
:103c30000000e80050079800de0090004e00900061
:103c4000808f5000f0ff350000c1eb008040eb009a
:103c50000040eb00f40c070040062000e8080700d5
:103c60000041eb0080c0eb000040eb00ee0c0700d1
:103c70008e08900021079800010037000000000026
:103c80004e0090009e0f5000c4ff35000e189000ab
:103c90000000e900100f98000e1890000041780015
:103ca0001e089000a38120006b00b900000078007e
:103cb00000804100024878001e089000b281200078
:103cc0006b00b900000078000000410011c0b30093
:103cd000014878001e007800004178001e0890001e
:103ce000a38120006b00b900000078000080410033
:103cf0000080e800024878000000eb0060079800b0
:103d000010003700f40047006e0090000080400073
:103d1000104178001e089000b38120006b00b900ac
:103d200000007800808041006e009000008040001c
:103d30000080e800024878006e0090000000e80073
:103d4000600798006e009000e70f5000edff340010
:103d50001668ef003604070000c0eb0016e8b70055
:103d60006225290091c1b300a0c0b300120c070066
:103d7000c05d2000a20807000080fa0000000600d5
:103d80002000fa00700f98000000eb00000f780090
:103d900010002000100798000080eb00200798001a
:103da000100020003007980001003700760a070055
:103db0008e0b0700e10f4000fcff3a007400370053
:103dc000710a0700890b0700400798003e00900029
:103dd0000000e0002b0032001668ef00140407001a
:103de00000c0eb0016e8b7007e0890008000e800f5
:103df0006a004700811f780021262900811f780072
:103e000044f20700e48757006a0047000001780089
:103e100051c0b300a0c0b300e70b07001e0078003c
:103e20000000e00005003a00c226290091c1b3005d
:103e3000a0c0b300e00b0700040037007227290080
:103e400091c1b300a0c0b300db0b07001e007800d7
:103e5000e10f500005003a002228290081c2b3007a
:103e6000a0c0b300d40b07000400370002292900ca
:103e700081c2b300a0c0b300cf0b07000000eb006d
:103e8000300798004e009000e10f40003c003200e7
:103e9000ce0090002e009000808f5000380032003d
:103ea0004e0090000000e000030032004e00900041
:103eb000e20f50000a003a001e00780000f0a70050
:103ec0000000ea00000fe9001e0078004f00de004d
:103ed000000f7800100020003007980026003700ff
:103ee0004e009000e40f5000030032004e0090009e
:103ef000e10f50001b003a001e0078000000e000b7
:103f000004003a007e0890000000e800a9fe0700c7
:103f1000110037007e089000b28120006b00b900cc
:103f200000007800000041008040eb00014878006c
:103f30001668ef00be03070000c0eb0016e8b700ec
:103f4000e229290091c1b300a0c0b3009a0b070079
:103f5000c05d20002a0807000000eb001007980051
:103f6000050037004e009000e30f500002003a00b9
:103f70000000eb00100798006009200020080700ef
:103f8000ce00900021079800200320001c080700a5
:103f90001e0090000000e00089ff3a000080fa0057
:103fa000000006000800fa0020079800310798007a
:103fb000be009000800720000088b9000001780052
:103fc0002e0090006000b900000078000001410060
:103fd000ae009000800720000008b80001014100f9
:103fe00082007800008fbe001e00be00c002b1003b
:103ff0000180b100008fbe001e00be00e00f500027
:10400000e08f580009003400040037001e00be0095
:104010006b005000e0805800008fbe001e00be0004
:10402000e00f5000e08f5800f8ff3c000080fa00dd
:10403000000006000400fa00100798000f00370087
:1040400040c0b300004f780003003700900120000b
:1040500001002000d3ff07001e4078008080fb0095
:104060008100ea00cf08de00814078000040e900ce
:10407000004f78000104e000f4ff3a001e009000b9
:1040800000f0a7000000ea000000ea004f00de0098
:10409000004078009e0090008100e9001107980020
:1040a0000004e000e6ff3a000080fa00000006008d
:1040b0000200fa00004f78001e80fb0040308800ac
:1040c0001130800000002800008060000000e00047
:1040d000fbff3a000080fa00000006000200fa0030
:1040e00040308000004f7800113080000000280030
:1040f000008060000000e000fbff3a0001e6a9003c
:1041000040308000004f780001e6a8001e40780093
:104110000080fa00000006000200fa004030800033
:10412000004f7800113080000000280000806000ff
:104130000000e000fbff3a001e4078000080fa001b
:10414000000006000400fa0041308000010f7800f2
:104150001e0078004800dd00000f7800113080005c
:1041600000002800008060000000e000fbff3a0033
:1041700040308000204798002e4090000080fb00d7
:104180001e0f6000113080000000280000806000d9
:104190000000e000fbff3a001e0078000080fa00fb
:1041a000000006000400fa00300520000100200095
:1041b000008fbe00dc42a900d842a900c9e2a900d4
:1041c000dd62a800d962a9000226ef000c26ef00ec
:1041d0000026ef0011308000f0cf2f00008060003b
:1041e0000090a0001030880011308000f0f32f0004
:1041f0000080600010308800500620000100200080
:104200001e01be00800f5100818f5900060036004c
:104210001130800030fc2f00008060000020a000e2
:1042200010308800150037005006200001002000e3
:104230001e01be00800f5100818f59000f003e000b
:104240001e01be00600620000100200021f10700d1
:10425000004078000040e8006f4060000080fb00f4
:104260006f0060004200dd001230800031fc2f0042
:104270008100610001007000103088001e01be0046
:10428000e000200001002000800f5100818f5900c4
:104290000500360011308000c0ff2f000080600054
:1042a00010308800140037001e01be00e00020001e
:1042b00001002000800f5100818f59000e003e0048
:1042c0001e01be00f00020000100200001f10700e7
:1042d000004078000040e800634060000080fb0080
:1042e0006300600012308000c1ff2f008100610078
:1042f00001007000103088000346a9000126a800c4
:10430000003080004900de00614060000080fb005a
:10431000610060004800dd00013080000180a100e4
:10432000010070000030880001e6a800dc42a8000f
:1043300040012000010020001aff07000080fa0061
:10434000000006001e00fa003005200001002000d9
:10435000008fbe00dc42a900d842a900c9e2a90032
:10436000dd62a800d962a9000226ef000c26ef004a
:104370000026ef0011308000f0cf2f000080600099
:104380000090a0001030880011308000f0f32f0062
:1043900000806000103088005006200001002000de
:1043a0001e01be00800f5100818f590006003600ab
:1043b0001130800030fc2f00008060000020a00041
:1043c0001030880015003700500620000100200042
:1043d0001e01be00800f5100818f59000f003e006a
:1043e0001e01be006006200001002000b9f0070099
:1043f000004078000040e8006f4060000080fb0053
:104400006f0060004200dd001230800031fc2f00a0
:104410008100610001007000103088001e01be00a4
:10442000e000200001002000800f5100818f590022
:104430000500360011308000c0ff2f0000806000b2
:1044400010308800140037001e01be00e00020007c
:1044500001002000800f5100818f59000e003e00a6
:104460001e01be00f00020000100200099f00700ae
:10447000004078000040e800634060000080fb00de
:104480006300600012308000c1ff2f0081006100d6
:1044900001007000103088000346a9000126a80022
:1044a000003080004900de00614060000080fb00b9
:1044b000610060004800dd00013080000180a10043
:1044c000010070000030880001e6a800dc42a8006e
:1044d0004001200001002000b2fe0700dd62a900bb
:1044e000cde2a900e0cab300404798004e409000da
:1044f0000080fb0040308800113080000000280060
:10450000008060000000e000fbff3a00b0cdb30087
:10451000504798005e4090000080fb0040308800cb
:104520001130800000002800008060000000e000e2
:10453000fbff3a0030c2b300604798006e40900025
:104540000080fb004030880011308000000028000f
:10455000008060000000e000fbff3a0090cdb30057
:10456000704798007e4090000080fb00403088003b
:104570001130800000002800008060000000e00092
:10458000fbff3a0020c2b300004f98000e48900095
:104590000080fb00403088001130800000002800bf
:1045a000008060000000e000fbff3a0010cab3008a
:1045b000104f98001e4890000080fb00403088009b
:1045c0001130800000002800008060000000e00042
:1045d000fbff3a0080ccb300204f98002e4890009b
:1045e0000080fb004030880011308000000028006f
:1045f000008060000000e000fbff3a00a0cdb300a7
:10460000304f98003e4890000080fb00403088000a
:104610001130800000002800008060000000e000f1
:10462000fbff3a0020c1b300404f98004e48900075
:104630000080fb004030880011308000000028001e
:10464000008060000000e000fbff3a0080cab30079
:10465000504f98005e4890000080fb00403088007a
:104660001130800000002800008060000000e000a1
:10467000fbff3a00f0c3b300604f98006e48900013
:104680000080fb00403088001130800000002800ce
:10469000008060000000e000fbff3a0050cdb30056
:1046a000704f98007e4890000080fb0040308800ea
:1046b0001130800000002800008060000000e00051
:1046c000fbff3a0000cab300005798000e5090005c
:1046d0000080fb004030880011308000000028007e
:1046e000008060000000e000fbff3a0010c8b3004b
:1046f000105798001e5090000080fb00403088004a
:104700001130800000002800008060000000e00000
:10471000fbff3a0000c6b300205798002e509000cf
:104720000080fb004030880011308000000028002d
:10473000008060000000e000fbff3a0030cdb300d5
:10474000305798003e5090000080fb0040308800b9
:104750001130800000002800008060000000e000b0
:10476000fbff3a000040eb00405798004e5090008d
:104770000080fb00403088001130800000002800dd
:10478000008060000000e000fbff3a0060cab30058
:10479000505798005e5090000080fb004030880029
:1047a0001130800000002800008060000000e00060
:1047b000fbff3a00d0cab300605798006e509000db
:1047c0000080fb004030880011308000000028008d
:1047d000008060000000e000fbff3a00b0c8b300ba
:1047e000705798007e5090000080fb004030880099
:1047f0001130800000002800008060000000e00010
:10480000fbff3a00f0cab300005f98000e5890001a
:104810000080fb004030880011308000000028003c
:10482000008060000000e000fbff3a00600920000b
:1048300000fe070040cab300105f98001e589000a9
:104840000080fb004030880011308000000028000c
:10485000008060000000e000fbff3a0000c4b300ed
:10486000205f98002e5890000080fb0040308800a8
:104870001130800000002800008060000000e0008f
:10488000fbff3a0020c0b300305f98003e58900014
:104890000080fb00403088001130800000002800bc
:1048a000008060000000e000fbff3a0000c1b300a0
:1048b000405f98004e5890000080fb004030880018
:1048c0001130800000002800008060000000e0003f
:1048d000fbff3a0010002000d6fd0700dd62a800b3
:1048e000cde2a8000080fa00000006001400fa00e3
:1048f000000f9800110f98001e089000e70f50005d
:1049000003003c0000cbb300004f780029003700c3
:104910001e089000ef0f500003003c0010cbb300c6
:10492000004f7800230037001e089000f70f50005a
:1049300003003c0020cbb300004f78001d0037007f
:104940001e089000ff0f500003003c0030cbb30066
:10495000004f7800170037009e089000700220007a
:10496000808f500003003c0040cbb300004f780024
:10497000100037009e089000f0022000808f500049
:1049800003003c0050cbb300004f78000900370013
:104990009e08900070032000808f500003003c00b0
:1049a00060cbb300004f78000200370070cbb3003b
:1049b000004f78000e0890000040780000c0e8002a
:1049c000204798002e4090006f40600030479800cc
:1049d0002e4090000080fb004400de000040780084
:1049e0000044a000404798001e0890004380de006d
:1049f000204798002e4090004300dd00204798009b
:104a00001e089000804078002e40900000c05000aa
:104a1000204798002e4090000080fb0011002000ed
:104a20000008dd0050479800dd62a900cde2a90032
:104a30009e407800614798006e4090000080fb0027
:104a400040308800113080000000280000806000a5
:104a50000000e000fbff3a00be4090007147980064
:104a60007e4090000080fb004030880011308000c4
:104a700000002800008060000000e000fbff3a001a
:104a8000ce409000014f98000e4890000080fb003f
:104a90004030880011308000000028000080600055
:104aa0000000e000fbff3a00cde2a80040308000ab
:104ab000104f980011308000000028000080600036
:104ac0000000e000fbff3a001e48900010479800ed
:104ad00040308000204f98001130800000002800f6
:104ae000008060000000e000fbff3a002e489000cc
:104af0001047980040308000304f980011308000ff
:104b000000002800008060000000e000fbff3a0089
:104b10003e4890001047980016c8bf000004e0000f
:104b2000050032009e4090005e40900000c0700082
:104b300010479800050037005e40900080c0ea00f2
:104b40001e40900000c0600010479800cde2a90010
:104b50009e407800414f98004e4890000080fb0036
:104b60004030880011308000000028000080600084
:104b70000000e000fbff3a00be409000514f98005b
:104b80005e4890000080fb004030880011308000bb
:104b900000002800008060000000e000fbff3a00f9
:104ba000ce409000614f98006e4890000080fb005e
:104bb0004030880011308000000028000080600034
:104bc0000000e000fbff3a00cde2a8009e4090000c
:104bd000714f98007e4890000080fb0040308800b4
:104be0001130800000002800008060000000e0001c
:104bf000fbff3a00dd62a8000080fa00000006001a
:104c00001000fa0060079800710798007e0090007d
:104c1000e70f500003003c0000cbb300004f7800ca
:104c2000290037007e009000ef0f500003003c0089
:104c300010cbb300004f7800230037007e009000b7
:104c4000f70f500003003c0020cbb300004f78006a
:104c50001d0037007e009000ff0f500003003c0055
:104c600030cbb300004f780017003700fe009000f3
:104c700070022000808f500003003c0040cbb30046
:104c8000004f780010003700fe009000f002200076
:104c9000808f500003003c0050cbb300004f7800e1
:104ca00009003700fe00900070032000808f500044
:104cb00003003c0060cbb300004f780002003700d7
:104cc00070cbb300004f78006e0090000040780079
:104cd00000c0e800104798001e4090006f40600040
:104ce000204798001e4090000080fb004400de003a
:104cf000004078000044a000304798007e009000fb
:104d00004380de00404798004e4090004300dd00a5
:104d1000404798007e009000804078004e40900010
:104d200000c05000404798004e4090000080fb00bb
:104d3000110020000008dd0050479800dd62a90046
:104d4000cde2a9009e407800714798007e40900017
:104d50000080fb00403088001130800000002800f7
:104d6000008060000000e000fbff3a00ae409000d1
:104d7000014f98000e4890000080fb0040308800f2
:104d80001130800000002800008060000000e0007a
:104d9000fbff3a00be409000114f98001e48900063
:104da0000080fb00403088001130800000002800a7
:104db000008060000000e000fbff3a00cde2a800a8
:104dc00040308000204f9800113080000000280003
:104dd000008060000000e000fbff3a002e489000d9
:104de0006047980040308000304f980011308000bc
:104df00000002800008060000000e000fbff3a0097
:104e000001e6a90040308000304f980001e6a8007c
:104e10003e48900060479800dd62a800ee40900098
:104e20005e40900000c060000080fa0000000600b4
:104e30000600fa00dd62a90000cbb300004f780045
:104e400035003700cde2a9009e4078002147980048
:104e50002e4090000080fb00403088001130800020
:104e600000002800008060000000e000fbff3a0026
:104e70000040eb00304798003e4090000080fb006f
:104e80004030880011308000000028000080600061
:104e90000000e000fbff3a0000c1b300404798006b
:104ea0004e4090000080fb004030880011308000b0
:104eb00000002800008060000000e000fbff3a00d6
:104ec000cde2a8000040eb00104798000d0037002d
:104ed00016c8bf00504798005e4090000080fb005d
:104ee0004030880011308000000028000080600001
:104ef0000000e000fbff3a001e4090000040e80088
:104f0000104798009e40900030c8b30080cf5000fa
:104f1000efff36001e4fe80070cbb3009e407800d4
:104f200080cf5000c7ff3600dd62a8000080fa0085
:044f30000000060077
:020000040000fa
:104f34001608000002000000000000009e080000a7
:104f4400080000000200000003000100020000004d
:104f5400000000000c080000060000000200000031
:104f64000400ff00ffffff0018080000020000001b
:104f740000000000520800002e00000000000000a5
:104f8400000800000c000000000000001a080000e7
:104f940038000000000000001208000004000000b7
:104fa40000000000800800001e0000000200000055
:104fb400286e69006c29000025006800076c090050
:104fc4004c836a009074a0007ac000008068880056
:104fd40000846c0082008100a6080000020000002a
:084fe4000000000000000000c5
:020000040000fa
:10500000ffff0000000000000000000000000000a2
:105010000000000000000000000000000000000090
:105020000000000000000000000000000000000080
:105030000000000000000000000000000000000070
:105040000000000000000000000000000000000060
:020000040000fa
:10580000ffff00000000000000000000000000009a
:105810000000000000000000000000000000000088
:105820000000000000000000000000000000000078
:105830000000000000000000000000000000000068
:105840000000000000000000000000000000000058
:020000040000fa
:106000000600fa0020079800210880000003200005
:106010000100700020088800f002200010088800ad
:106020000021ef0005e1a8006000b800008fbe006d
:1060300010003700000000002004800068006000ad
:106040000000e000fcff32008460a9001200200084
:10605000030020001e0f41005e9749009040800021
:10606000a140800061004000e0804800904088002e
:10607000a14088002e0090008000eb00be0f500071
:10608000ae8f5800ebff3e0005e1a9000080fa004a
:10609000000006000200fa00a081200011c0b30039
:1060a00001487800b081200011c0b3000148780099
:1060b000c081200041c0b30001487800d081200099
:1060c0008040eb0001487800e08120008040eb0038
:1060d00001487800f08120008040eb000148780002
:1060e000008220008040eb000148780050822000b0
:1060f00021c0b300014878006082200011c0b300c5
:10610000014878007082200041c0b3000148780047
:106110008082200021c0b3000148780090822000d6
:1061200021c0b30001487800a082200021c0b30044
:1061300001487800b082200021c0b30001487800f7
:1061400020002000000f7800190037001e007800a2
:10615000004078000041e8001e007800a381200084
:106160006b00b90000007800008041000248780010
:106170001e007800b28120006b00b900000078009a
:10618000000041008040eb00014878001e007800cc
:10619000a28120006b00b9000000780000004100df
:1061a0000080e80041c0b300014878001e0fe800fd
:1061b0001e007800e40f5000e4ff34000080fa0075
:1061c000000006002000fa00600f9800710f980090
:1061d0007e089000004f78001e407800e44f500089
:1061e000050032001e407800e84f500002003200e7
:1061f00040c0b300004f78001e80fb00500798009d
:106200000000eb00100798000e0037001e00900001
:106210000000e8009e0090006e099000810041009f
:10622000914078008180fb000000400000004700a2
:106230006a004000010878001e0090000000e8009d
:10624000100798001e009000e70f5000efff340089
:1062500000802200010020002007980031079800ec
:10626000220424002e009000be009000d1e8070018
:106270005000200062ff07000000eb00400798007c
:10628000110037004e009000000040000000470061
:1062900050009000000178002e009000be00900099
:1062a000e6e807002e009000be009000620040006b
:1062b000e080480020079800310798004e009000c9
:1062c0000000e800400798004e009000e80f5000e2
:1062d000ecff34005000200049ff07000080fa0066
:1062e000000006000e00fa005007980061079800b1
:1062f0000080220001002000008fbe000000eb00a3
:1063000030079800660047000002eb0023002000e1
:10631000000178001e00be00d3e807003e00900098
:10632000e10f400028003a006e009000410020007c
:10633000010878005e00900031c0b3000148780089
:106340005e0090000000e8008040eb00014878000b
:106350005e0090000080e80011c0b30001487800a2
:106360005e0090006300400021c0b3000148780047
:106370005e009000640040008040eb00014878001f
:106380005e009000650040008040eb00014878000e
:106390005e009000660040008040eb0001487800fd
:1063a0005e009000670040008040eb0001487800ec
