:020000040000fa
:080000000002040000000000f2
:020000040000fa
:04000800c80200002a
:020000040000fa
:04000c00c802000026
:020000040000fa
:04001000c802000022
:020000040000fa
:04001400c80200001e
:020000040000fa
:04001800c80200001a
:020000040000fa
:04001c00c802000016
:020000040000fa
:04002000c802000012
:020000040000fa
:04002400c80200000e
:020000040000fa
:04002800c80200000a
:020000040000fa
:04002c00c802000006
:020000040000fa
:04003000c802000002
:020000040000fa
:04003400c8020000fe
:020000040000fa
:04003800c8020000fa
:020000040000fa
:04003c00c8020000f6
:020000040000fa
:04004000c8020000f2
:020000040000fa
:04004400c8020000ee
:020000040000fa
:04004800c8020000ea
:020000040000fa
:04004c00c8020000e6
:020000040000fa
:04005000c8020000e2
:020000040000fa
:04005400c8020000de
:020000040000fa
:04005800c8020000da
:020000040000fa
:04005c00c8020000d6
:020000040000fa
:04006000c8020000d2
:020000040000fa
:04006400c8020000ce
:020000040000fa
:04006800c8020000ca
:020000040000fa
:04006c00c8020000c6
:020000040000fa
:04007000c8020000c2
:020000040000fa
:04007400c8020000be
:020000040000fa
:04007800c8020000ba
:020000040000fa
:04007c00c8020000b6
:020000040000fa
:04008000c8020000b2
:020000040000fa
:04008400c8020000ae
:020000040000fa
:04008800c8020000aa
:020000040000fa
:04008c00c8020000a6
:020000040000fa
:04009000c8020000a2
:020000040000fa
:04009400c80200009e
:020000040000fa
:04009800c80200009a
:020000040000fa
:04009c00c802000096
:020000040000fa
:0400a000c802000092
:020000040000fa
:0400a400c80200008e
:020000040000fa
:0400a800c80200008a
:020000040000fa
:0400ac00c802000086
:020000040000fa
:0400b000c802000082
:020000040000fa
:0400b400c80200007e
:020000040000fa
:0400b800c80200007a
:020000040000fa
:0400bc00c802000076
:020000040000fa
:0400c000c802000072
:020000040000fa
:0400c400c80200006e
:020000040000fa
:0400c800c80200006a
:020000040000fa
:0400cc00c802000066
:020000040000fa
:0400d000c802000062
:020000040000fa
:0400d400c80200005e
:020000040000fa
:0400d800c80200005a
:020000040000fa
:0400dc00c802000056
:020000040000fa
:0400e000c802000052
:020000040000fa
:0400e400c80200004e
:020000040000fa
:0400e800c80200004a
:020000040000fa
:0400ec00c802000046
:020000040000fa
:0400f000c802000042
:020000040000fa
:0400f400c80200003e
:020000040000fa
:0400f800c80200003a
:020000040000fa
:0400fc00c802000036
:020000040000fa
:04010000c802000031
:020000040000fa
:04010400c80200002d
:020000040000fa
:04010800c802000029
:020000040000fa
:04010c00c802000025
:020000040000fa
:04011000c802000021
:020000040000fa
:04011400c80200001d
:020000040000fa
:04011800c802000019
:020000040000fa
:04011c00c802000015
:020000040000fa
:04012000c802000011
:020000040000fa
:04012400c80200000d
:020000040000fa
:04012800c802000009
:020000040000fa
:04012c00c802000005
:020000040000fa
:04013000c802000001
:020000040000fa
:04013400c8020000fd
:020000040000fa
:04013800c8020000f9
:020000040000fa
:04013c00c8020000f5
:020000040000fa
:04014000c8020000f1
:020000040000fa
:04014400c8020000ed
:020000040000fa
:04014800c8020000e9
:020000040000fa
:04014c00c8020000e5
:020000040000fa
:04015000c8020000e1
:020000040000fa
:04015400c8020000dd
:020000040000fa
:04015800c8020000d9
:020000040000fa
:04015c00c8020000d5
:020000040000fa
:04016000c8020000d1
:020000040000fa
:04016400c8020000cd
:020000040000fa
:04016800c8020000c9
:020000040000fa
:04016c00c8020000c5
:020000040000fa
:04017000c8020000c1
:020000040000fa
:04017400c8020000bd
:020000040000fa
:04017800c8020000b9
:020000040000fa
:04017c00c8020000b5
:020000040000fa
:04018000c8020000b1
:020000040000fa
:04018400c8020000ad
:020000040000fa
:04018800c8020000a9
:020000040000fa
:04018c00c8020000a5
:020000040000fa
:04019000c8020000a1
:020000040000fa
:04019400c80200009d
:020000040000fa
:04019800c802000099
:020000040000fa
:04019c00c802000095
:020000040000fa
:04020800c802000028
:020000040000fa
:04020c00c802000024
:020000040000fa
:04021000c802000020
:020000040000fa
:04021400c80200001c
:020000040000fa
:04021800c802000018
:020000040000fa
:04021c00c802000014
:020000040000fa
:04022000c802000010
:020000040000fa
:04022400c80200000c
:020000040000fa
:04022800c802000008
:020000040000fa
:04022c00c802000004
:020000040000fa
:04023000c802000000
:020000040000fa
:04023400c8020000fc
:020000040000fa
:04023800c8020000f8
:020000040000fa
:04023c00c8020000f4
:020000040000fa
:04024000c8020000f0
:020000040000fa
:04024400c8020000ec
:020000040000fa
:04024800c8020000e8
:020000040000fa
:04024c00c8020000e4
:020000040000fa
:04025000c8020000e0
:020000040000fa
:04025400c8020000dc
:020000040000fa
:04025800c8020000d8
:020000040000fa
:04025c00c8020000d4
:020000040000fa
:04026000c8020000d0
:020000040000fa
:04026400c8020000cc
:020000040000fa
:04026800c8020000c8
:020000040000fa
:04026c00c8020000c4
:020000040000fa
:04027000c8020000c0
:020000040000fa
:04027400c8020000bc
:020000040000fa
:04027800c8020000b8
:020000040000fa
:04027c00c8020000b4
:020000040000fa
:04028000c8020000b0
:020000040000fa
:04028400c8020000ac
:020000040000fa
:04028800c8020000a8
:020000040000fa
:04028c00c8020000a4
:020000040000fa
:04029000c8020000a0
:020000040000fa
:04029400c80200009c
:020000040000fa
:04029800c802000098
:020000040000fa
:04029c00c802000094
:020000040000fa
:0402a000c802000090
:020000040000fa
:0402a400c80200008c
:020000040000fa
:0402a800c802000088
:020000040000fa
:0402ac00c802000084
:020000040000fa
:0402b000c802000080
:020000040000fa
:0402b400c80200007c
:020000040000fa
:0402b800c802000078
:020000040000fa
:0402bc00c802000074
:020000040000fa
:0402c000c802000070
:020000040000fa
:0402c400c80200006c
:020000040000fa
:0402c800c802000068
:020000040000fa
:0402cc00c802000064
:020000040000fa
:0402d000c802000060
:020000040000fa
:0402d400c80200005c
:020000040000fa
:0402d800c802000058
:020000040000fa
:0402dc00c802000054
:020000040000fa
:0402e000c802000050
:020000040000fa
:0402e400c80200004c
:020000040000fa
:0402e800c802000048
:020000040000fa
:0402ec00c802000044
:020000040000fa
:0402f000c802000040
:020000040000fa
:0402f400c80200003c
:020000040000fa
:0402f800c802000038
:020000040000fa
:0402fc00c802000034
:020000040000fa
:04030000c80200002f
:020000040000fa
:04030400c80200002b
:020000040000fa
:04030800c802000027
:020000040000fa
:04030c00c802000023
:020000040000fa
:04031000c80200001f
:020000040000fa
:04031400c80200001b
:020000040000fa
:04031800c802000017
:020000040000fa
:04031c00c802000013
:020000040000fa
:04032000c80200000f
:020000040000fa
:04032400c80200000b
:020000040000fa
:04032800c802000007
:020000040000fa
:04032c00c802000003
:020000040000fa
:04033000c8020000ff
:020000040000fa
:04033400c8020000fb
:020000040000fa
:04033800c8020000f7
:020000040000fa
:04033c00c8020000f3
:020000040000fa
:04034000c8020000ef
:020000040000fa
:04034400c8020000eb
:020000040000fa
:04034800c8020000e7
:020000040000fa
:04034c00c8020000e3
:020000040000fa
:04035000c8020000df
:020000040000fa
:04035400c8020000db
:020000040000fa
:04035800c8020000d7
:020000040000fa
:04035c00c8020000d3
:020000040000fa
:04036000c8020000cf
:020000040000fa
:04036400c8020000cb
:020000040000fa
:04036800c8020000c7
:020000040000fa
:04036c00c8020000c3
:020000040000fa
:04037000c8020000bf
:020000040000fa
:04037400c8020000bb
:020000040000fa
:04037800c8020000b7
:020000040000fa
:04037c00c8020000b3
:020000040000fa
:04038000c8020000af
:020000040000fa
:04038400c8020000ab
:020000040000fa
:04038800c8020000a7
:020000040000fa
:04038c00c8020000a3
:020000040000fa
:04039000c80200009f
:020000040000fa
:04039400c80200009b
:020000040000fa
:04039800c802000097
:020000040000fa
:04039c00c802000093
:020000040000fa
:10040000cf8420000e7f24000e0188000000000031
:10041000000020000000e000020032000001200087
:1004200020028800140007005b0007000000e000c5
:1004300003003a0000902100010020000200370074
:100440000000200001002000810f70000100320038
:1004500014000700000020000000e000020032004d
:100460000000020000000000720c0200000000000a
:100470000040da000000fe004440a900c01b20003c
:100480000000e0000300320000002000a00188000e
:100490004440a800000006008a1f78008b1f7800e7
:1004a0000000060091018800800478000000eb0045
:1004b0001a003700e284440032a0b4009905ba0063
:1004c000e284440032a0b4009906ba00e2844400f9
:1004d00032a0b4000006eb00476fde00fd07b2005b
:1004e000636ce10003003a00ebff07000000eb0043
:1004f0000a003700606ce10004003a00005deb0088
:100500008b05e900fdff3e00040037006168e10053
:10051000010032000086eb000b00070019c7ba008b
:100520001905ba000e04e00003003a000a00e000da
:10053000e0ff3a0000000600fe07b2009e018800be
:100540008a047800f5ff3700395dba008b05e900b1
:100550000c003200295dba008b05e900080032006a
:100560000c00e00003003a00e284440032a0b40032
:10057000f5ff370019ddba008b05e900faff3a00f4
:100580008904e800e184440032a0b40000000600c1
:100590000040da000000fe00000005006022b80004
:1005a000060220000000d0008180d2000482d20028
:1005b0008582d2000000a0000202520083825a000d
:1005c000030031000202420083824a000000a100c1
:0c05d0000603e900f3ff3a0000000600fb
:020000040000fa
:1005dc00434100004c4900004252000041540000cd
:1005ec00494e00004700000053540000414e0000eb
:1005fc0044420000590000005052000045530000d6
:10060c0053200000434500004e54000045520000aa
:10061c00004500004e54000045520000204b0000e5
:10062c004559000000540000494d000045200000d1
:10063c004f55000054000000554e00004c4f000078
:10064c00434b000045440000004b0000455900009e
:10065c0020570000524f00004e470000004d000094
:10066c00414900004e2000004d4500004e55000051
:10067c00003e0000204c00004f4300004b200000c7
:10068c005359000053540000454d00000020000059
:10069c00204c00004f4300004b2000005359000039
:1006ac0053540000454d0000003e00002043000064
:1006bc00484100004e470000452000004b4500001b
:1006cc00590000002020000043480000414e00006b
:1006dc0047450000204b000045590000004c00002d
:1006ec00454e000047540000483f0000003e00000b
:1006fc002034000020440000494700004954000009
:10070c005300000020200000342000004449000069
:10071c004749000054530000003e00002038000000
:10072c0020440000494700004954000053000000d9
:10073c0020200000382000004449000047490000f8
:10074c0054530000004500004e5400004552000078
:10075c00204e0000455700003a00000053410000b5
:10076c00564500004421000000530000595300007e
:10077c00544500004d2000004c4f0000434b00003e
:10078c00454400000057000041490000542e000071
:10079c002e2e0000000000000000000000000000f1
:1007ac00003e000051490000453e000000410000a1
:1007bc007f400000007100004949000049460000dc
:1007cc004149000049490000360f000008080000ac
:1007dc00087f00004f49000049490000313e0000ed
:1007ec004949000049320000010100007905000070
:1007fc000336000049490000493600002649000034
:10080c00494900003e7e000011110000117e0000dd
:10081c007f49000049490000363e0000414100007c
:10082c00412200007f410000412200001c7f00009b
:10083c0049490000494100007f09000009090000f6
:10084c00013e000041490000497a00007f08000089
:10085c00080800007f000000417f000041000000fc
:10086c0020400000413f0000017f00000814000000
:10087c00224100007f40000040400000407f00000b
:10088c00020c0000027f00007f0400000810000032
:10089c007f3e000041410000413e00007f09000006
:1008ac0009090000063e000041510000215e0000d5
:1008bc007f09000019290000464600004949000044
:1008cc0049310000010100007f010000013f0000e0
:1008dc0040400000403f00001f200000402000006e
:1008ec001f3f000040380000403f00006314000030
:1008fc0008140000630700000870000008070000df
:10090c006151000049450000430800001c3e0000f6
:10091c001c08000000410000221400000800000028
:10092c006060000000000000534500004300000020
:10093c00434100004c490000425200004154000069
:08094c00494e000047000000c5
:020000040000fa
:100954000800fa002007980031079800be009000b4
:10096400800720000088b900000178002e00900064
:100974006000b9000000780000014100ae00900062
:10098400800720000008b8000101410082007800bf
:10099400008fbe001e00be00c002b1000180b10085
:1009a400008fbe001e00be00e00f5000e08f580014
:1009b40009003400040037001e00be006b00500024
:1009c400e0805800008fbe001e00be00e00f500003
:1009d400e08f5800f8ff3c000080fa000000060099
:1009e4000400fa00100798000f00370040c0b3005d
:1009f400004f780003003700900120000100200020
:100a0400d3ff07001e4078008080fb008100ea00cd
:100a1400cf08de00814078000040e900004f7800f4
:100a24000104e000f4ff3a001e00900000f0a7006b
:100a34000000ea000000ea004f00de0000407800f9
:100a44009e0090008100e900110798000004e00076
:100a5400e6ff3a000080fa00000006000200fa00f7
:100a6400004f78001e80fb00403088001130800069
:100a740000002800008060000000e000fbff3a0056
:100a84000080fa00000006000200fa0040308000f6
:100a9400004f7800113080000000280000806000c2
:100aa4000000e000fbff3a0001e6a90040308000ae
:100ab400004f780001e6a8001e4078000080fa008c
:100ac400000006000200fa0040308000004f780069
:100ad4001130800000002800008060000000e00069
:100ae400fbff3a001e4078000080fa000000060078
:100af4000400fa0041308000010f78001e007800e5
:100b04004800dd00000f780011308000000028004c
:100b1400008060000000e000fbff3a0040308000ed
:100b2400204798002e4090000080fb001e0f6000bc
:100b34001130800000002800008060000000e00008
:100b4400fbff3a001e0078000080fa000000060057
:100b54000400fa003005200001002000008fbe00d0
:100b6400dc42a900d842a900c9e2a900dd62a800bc
:100b7400d962a9000226ef000c26ef000026ef0040
:100b840011308000f0cf2f00008060000090a000a2
:100b94001030880011308000f0f32f0000806000d6
:100ba4001030880050062000010020001e01be0005
:100bb400800f5100818f59000600360011308000eb
:100bc40030fc2f00008060000020a000103088005e
:100bd4001500370050062000010020001e01be0051
:100be400800f5100818f59000f003e001e01be008e
:100bf400600620000100200067fe07000040780026
:100c04000040e8006f4060000080fb006f0060005f
:100c14004200dd001230800031fc2f0081006100b1
:100c240001007000103088001e01be00e0002000aa
:100c340001002000800f5100818f5900050036000b
:100c440011308000c0ff2f00008060001030880049
:100c5400140037001e01be00e00020000100200047
:100c6400800f5100818f59000e003e001e01be000e
:100c7400f00020000100200047fe0700004078003b
:100c84000040e800634060000080fb0063006000f7
:100c940012308000c1ff2f0081006100010070004c
:100ca400103088000346a9000126a8000030800007
:100cb4004900de00614060000080fb0061006000cc
:100cc4004800dd00013080000180a10001007000b7
:100cd4000030880001e6a800dc42a80040012000a2
:100ce400010020001aff07000080fa00000006003f
:100cf4001e00fa003005200001002000008fbe0015
:100d0400dc42a900d842a900c9e2a900dd62a8001a
:100d1400d962a9000226ef000c26ef000026ef009e
:100d240011308000f0cf2f00008060000090a00000
:100d34001030880011308000f0f32f000080600034
:100d44001030880050062000010020001e01be0063
:100d5400800f5100818f5900060036001130800049
:100d640030fc2f00008060000020a00010308800bc
:100d74001500370050062000010020001e01be00af
:100d8400800f5100818f59000f003e001e01be00ec
:100d94006006200001002000fffd070000407800ed
:100da4000040e8006f4060000080fb006f006000be
:100db4004200dd001230800031fc2f008100610010
:100dc40001007000103088001e01be00e000200009
:100dd40001002000800f5100818f5900050036006a
:100de40011308000c0ff2f000080600010308800a8
:100df400140037001e01be00e000200001002000a6
:100e0400800f5100818f59000e003e001e01be006c
:100e1400f000200001002000dffd07000040780002
:100e24000040e800634060000080fb006300600055
:100e340012308000c1ff2f008100610001007000aa
:100e4400103088000346a9000126a8000030800065
:100e54004900de00614060000080fb00610060002a
:100e64004800dd00013080000180a1000100700015
:100e74000030880001e6a800dc42a8004001200000
:100e840001002000b2fe0700dd62a900cde2a90046
:100e9400e0cab300404798004e4090000080fb0039
:100ea400403088001130800000002800008060007d
:100eb4000000e000fbff3a00b0cdb30050479800bb
:100ec4005e4090000080fb004030880011308000bc
:100ed40000002800008060000000e000fbff3a00f2
:100ee40030c2b300604798006e4090000080fb0061
:100ef400403088001130800000002800008060002d
:100f04000000e000fbff3a0090cdb300704798006a
:100f14007e4090000080fb0040308800113080004b
:100f240000002800008060000000e000fbff3a00a1
:100f340020c2b300004f98000e4890000080fb00d0
:100f440040308800113080000000280000806000dc
:100f54000000e000fbff3a0010cab300104f9800f5
:100f64001e4890000080fb00403088001130800053
:100f740000002800008060000000e000fbff3a0051
:100f840080ccb300204f98002e4890000080fb00d6
:100f9400403088001130800000002800008060008c
:100fa4000000e000fbff3a00a0cdb300304f9800f2
:100fb4003e4890000080fb004030880011308000e3
:100fc40000002800008060000000e000fbff3a0001
:100fd40020c1b300404f98004e4890000080fb00b1
:100fe400403088001130800000002800008060003c
:100ff4000000e000fbff3a0080cab300504f9800a5
:101004005e4890000080fb00403088001130800072
:1010140000002800008060000000e000fbff3a00b0
:10102400f0c3b300604f98006e4890000080fb004e
:1010340040308800113080000000280000806000eb
:101044000000e000fbff3a0050cdb300704f980061
:101054007e4890000080fb00403088001130800002
:1010640000002800008060000000e000fbff3a0060
:1010740000cab300005798000e5090000080fb0097
:10108400403088001130800000002800008060009b
:101094000000e000fbff3a0010c8b30010579800ae
:1010a4001e5090000080fb0040308800113080000a
:1010b40000002800008060000000e000fbff3a0010
:1010c40000c6b300205798002e5090000080fb000b
:1010d400403088001130800000002800008060004b
:1010e4000000e000fbff3a0030cdb3003057980019
:1010f4003e5090000080fb0040308800113080009a
:1011040000002800008060000000e000fbff3a00bf
:101114000040eb00405798004e5090000080fb00c8
:1011240040308800113080000000280000806000fa
:101134000000e000fbff3a0060cab300505798007b
:101144005e5090000080fb00403088001130800029
:1011540000002800008060000000e000fbff3a006f
:10116400d0cab300605798006e5090000080fb0016
:1011740040308800113080000000280000806000aa
:101184000000e000fbff3a00b0c8b30070579800bd
:101194007e5090000080fb004030880011308000b9
:1011a40000002800008060000000e000fbff3a001f
:1011b400f0cab300005f98000e5890000080fb0056
:1011c400403088001130800000002800008060005a
:1011d4000000e000fbff3a006009200000fe070069
:1011e40040cab300105f98001e5890000080fb00b6
:1011f400403088001130800000002800008060002a
:101204000000e000fbff3a0000c4b300205f980038
:101214002e5890000080fb00403088001130800080
:1012240000002800008060000000e000fbff3a009e
:1012340020c0b300305f98003e5890000080fb004f
:1012440040308800113080000000280000806000d9
:101254000000e000fbff3a0000c1b300405f9800cb
:101264004e5890000080fb00403088001130800010
:1012740000002800008060000000e000fbff3a004e
:1012840010002000d6fd0700dd62a800cde2a80012
:101294000080fa00000006001400fa00000f980015
:1012a400110f98001e089000e70f500003003c0047
:1012b40000cbb300004f7800290037001e089000cf
:1012c400ef0f500003003c0010cbb300004f780038
:1012d400230037001e089000f70f500003003c0065
:1012e40020cbb300004f78001d0037001e0890008b
:1012f400ff0f500003003c0030cbb300004f7800d8
:10130400170037009e08900070022000808f500064
:1013140003003c0040cbb300004f780010003700be
:101324009e089000f0022000808f500003003c00d3
:1013340050cbb300004f7800090037009e0890009e
:1013440070032000808f500003003c0060cbb3008a
:10135400004f78000200370070cbb300004f7800d4
:101364000e0890000040780000c0e8002047980074
:101374002e4090006f406000304798002e4090004f
:101384000080fb004400de00004078000044a00020
:10139400404798001e0890004380de0020479800d4
:1013a4002e4090004300dd00204798001e08900066
:1013b400804078002e40900000c0500020479800e4
:1013c4002e4090000080fb00110020000008dd008a
:1013d40050479800dd62a900cde2a9009e40780044
:1013e400614798006e4090000080fb004030880008
:1013f4001130800000002800008060000000e00040
:10140400fbff3a00be409000714798007e40900078
:101414000080fb004030880011308000000028006c
:10142400008060000000e000fbff3a00ce40900026
:10143400014f98000e4890000080fb004030880067
:101444001130800000002800008060000000e000ef
:10145400fbff3a00cde2a80040308000104f980016
:101464001130800000002800008060000000e000cf
:10147400fbff3a001e48900010479800403080005f
:10148400204f980011308000000028000080600088
:101494000000e000fbff3a002e489000104798003f
:1014a40040308000304f9800113080000000280048
:1014b400008060000000e000fbff3a003e4890001e
:1014c4001047980010c8bf000004e0000500320077
:1014d4009e4090005e40900000c07000104798004d
:1014e400050037005e40900080c0ea001e40900076
:1014f40000c0600010479800cde2a9009e4078002b
:10150400414f98004e4890000080fb004030880016
:101514001130800000002800008060000000e0001e
:10152400fbff3a00be409000514f98005e48900087
:101534000080fb004030880011308000000028004b
:10154400008060000000e000fbff3a00ce40900005
:10155400614f98006e4890000080fb004030880086
:101564001130800000002800008060000000e000ce
:10157400fbff3a00cde2a8009e409000714f980016
:101584007e4890000080fb004030880011308000cd
:1015940000002800008060000000e000fbff3a002b
:1015a400dd62a8000080fa00000006001000fa00c6
:1015b40060079800710798007e009000e70f5000c4
:1015c40003003c0000cbb300004f78002900370033
:1015d4007e009000ef0f500003003c0010cbb300de
:1015e400004f7800230037007e009000f70f500072
:1015f40003003c0020cbb300004f78001d003700ef
:101604007e009000ff0f500003003c0030cbb3007d
:10161400004f780017003700fe0090007002200091
:10162400808f500003003c0040cbb300004f780093
:1016340010003700fe009000f0022000808f500060
:1016440003003c0050cbb300004f78000900370082
:10165400fe00900070032000808f500003003c00c7
:1016640060cbb300004f78000200370070cbb300aa
:10167400004f78006e0090000040780000c0e80041
:10168400104798001e4090006f406000204798006b
:101694001e4090000080fb004400de000040780003
:1016a4000044a000304798007e0090004380de0094
:1016b400404798004e4090004300dd0040479800aa
:1016c4007e009000804078004e40900000c05000a2
:1016d400404798004e4090000080fb00110020001d
:1016e4000008dd0050479800dd62a900cde2a900a2
:1016f4009e407800714798007e4090000080fb0077
:101704004030880011308000000028000080600014
:101714000000e000fbff3a00ae409000014f98004b
:101724000e4890000080fb0040308800113080009b
:1017340000002800008060000000e000fbff3a0089
:10174400be409000114f98001e4890000080fb009e
:1017540040308800113080000000280000806000c4
:101764000000e000fbff3a00cde2a800403080001a
:10177400204f980011308000000028000080600095
:101784000000e000fbff3a002e48900060479800fc
:1017940040308000304f9800113080000000280055
:1017a400008060000000e000fbff3a0001e6a900b1
:1017b40040308000304f980001e6a8003e48900079
:1017c40060479800dd62a800ee4090005e40900003
:1017d40000c060000080fa00000006000600fa0065
:1017e400dd62a90000cbb300004f7800350037005c
:1017f400cde2a9009e407800214798002e40900039
:101804000080fb0040308800113080000000280078
:10181400008060000000e000fbff3a000040eb00a5
:10182400304798003e4090000080fb004030880024
:101834001130800000002800008060000000e000fb
:10184400fbff3a0000c1b300404798004e409000af
:101854000080fb0040308800113080000000280028
:10186400008060000000e000fbff3a00cde2a80029
:101874000040eb00104798000d00370010c8bf006f
:10188400504798005e4090000080fb004030880084
:101894001130800000002800008060000000e0009b
:1018a400fbff3a001e4090000040e80010479800fb
:1018b4009e40900030c8b30080cf5000efff360048
:1018c4001e4fe80070cbb3009e40780080cf5000dc
:1018d400c7ff3600dd62a8000080fa0000000600a1
:1018e4004000fa00889fbe0020302300103a880090
:1018f4004427ef0025030700ac050700f2050700a5
:10190400fbfc07001068ef00b4ff070000c0eb0009
:1019140010e8b700e22e280041c1b300a0c0b30014
:10192400dd0407000000eb00000f78000200370020
:101934004d0307001e0fe800900f20009e00780062
:10194400808f5000faff34001068ef00a3ff0700f7
:101954000000eb00100798000080eb0020079800bf
:1019640010002000300798008e0078008103b0003a
:10197400030009008018eb001000200040079800c5
:101984000000eb00500798006000b8006007980062
:10199400710798006000b800000f9800110f9800bc
:1019a40080fc2a00010020002017980031179800bd
:1019b4000000eb00200f98006000b800300f980082
:1019c400410f98000000eb00500f980000c0eb009e
:1019d40010e8b700a22f280041c1b300a0c0b30093
:1019e400ad0407002230280031c2b300a0c0b30008
:1019f400a90407000041eb008040eb0000c0eb00ad
:101a04004105070018030700300407004017980039
:101a14004e0090000000e000230032004e109000c1
:101a2400e40f50001b003a002e009000e10f40002c
:101a340018003a000000eb00400798000000eb009b
:101a4400100798000000eb00500f98000000eb0016
:101a5400200f98006240800073408000020f9800bd
:101a6400130f98001068ef005cff070000c0eb0044
:101a740010e8b700f2302800a1c0b300a0c0b30042
:101a8400850407000041eb008040eb0000c0eb0040
:101a94001d050700ce1190002307980020032000a5
:101aa400b105070056013700624080007340800092
:101ab4000e0890009e08900000005100818059009b
:101ac40050179800611798005e119000ee11900075
:101ad4002e109000be109000800f5100818f59008d
:101ae4001d0039000000eb00100798000000eb0017
:101af400500f98000000eb005007980010002000e1
:101b0400400798001068ef0034ff070000c0eb00a6
:101b140010e8b700a22f280041c1b300a0c0b30051
:101b24005d0407002230280031c2b300a0c0b30016
:101b3400590407000041eb008040eb0000c0eb00bb
:101b4400f1040700ce109000210798002003200024
:101b5400850507002a0137005e0090000000e000c0
:101b64003700320062408000734080006e009000b5
:101b7400fe00900000005100818059007017980009
:101b8400011f98007e1090008e189000823e200065
:101b94000300200080fa0700000078006f001000a6
:101ba400101f98001e1890000000e0001d003c006b
:101bb4000000eb00500798000000eb0010079800ad
:101bc4000000eb00500f98001068ef0003ff0700bf
:101bd40000c0eb0010e8b70092312800f1c0b30058
:101be400a0c0b3002c040700007d20005e050700a0
:101bf4001068ef00f9fe070000c0eb0010e8b70022
:101c0400f2302800a1c0b300a0c0b3002204070032
:101c14004e1190002207980020032000520507006f
:101c2400f70037001e189000650407001e0090009e
:101c34000000e000020034001e00900030040700a1
:101c44005e0890000000e0003f0032002e08900083
:101c54000000e0003c0034006240800073408000db
:101c64003e089000ce089000000051008180590089
:101c7400201f9800311f98002e199000be19900063
:101c84007025200001002000800f5100818f590031
:101c9400050036000000eb00500f98002e0890005d
:101ca40017040700280037002e189000be18900073
:101cb400c21220000300200037fa07000000780059
:101cc400610060008004eb00000478000800be009e
:101cd400e00f5000e08f580003003a002e089000f7
:101ce40007040700180037001068ef000000eb003d
:101cf400600f9800110037000000eb00700f98008f
:101d0400080037007e089000fe0040006e08900036
:101d14006a00400060fd07007e0890000000e800b3
:101d2400700f98007e089000e70f5000f5ff340014
:101d34006e0890000000e800600f98006e089000a4
:101d4400fd0f5000ecff34004e109000e10f4000f6
:101d5400990032002e009000e10f400096003a00f6
:101d64001e0090000000e0000d003a005e009000ac
:101d74000000e0000a003a0010002000500798001c
:101d840062408000734080006207980073079800e7
:101d94006240800073408000020f9800130f980087
:101da4006240800073408000020f9800130f980077
:101db40000c1eb008040eb000040eb005204070040
:101dc400904080009e009000808f500014003d00e1
:101dd4004e10900080407800820320000e014100e4
:101de4001e00900000004100014878001e00900091
:101df4000000e800100798001e009000c0030700d0
:101e04009e019000230f980010002000500f9800ae
:101e14006240800073408000320f9800430f9800a6
:101e2400904080009e009000808f500062003a0035
:101e34000000eb00500798001000200000179800e5
:101e44000000eb00101798001100370081032000f8
:101e54008e8040001e10900000804000904078006a
:101e6400428420001e1090000000410010407800c1
:101e740080cf5000030032000000eb0000179800f0
:101e8400070037001e1090000000e80010179800ab
:101e9400904080009e109000808f5000ebff350032
:101ea4001068ef004dfe070000c0eb0010e8b7001b
:101eb4000e1090000000e000210032001428ef0012
:101ec4002232280041c1b300a0c0b300720307004e
:101ed4000041eb0080c0eb000040eb000a04070067
:101ee400803e2000a00407004600070010002000e8
:101ef4003007980010002000400798001068ef0099
:101f040036fe070000c0eb0010e8b700a22f28003f
:101f140041c1b300a0c0b3005f0307002230280012
:101f240031c2b300a0c0b3005b0307000041eb0063
:101f34008040eb0000c0eb00f30307001a003700f9
:101f4400b2322800f1c0b300a0c0b30052030700ae
:101f54000041eb008040eb0000c0eb00ea03070007
:101f6400a04080000000e800a0408800a04080005d
:101f7400e20f500002003400440107000200370061
:101f8400007d2000780407001068ef0013fe0700ae
:101f940000c0eb0010e8b700f2302800a1c0b30085
:101fa400a0c0b3003c0307000000eb00100798003a
:101fb4000000eb00500f98004e109000e10f40001d
:101fc4000a003a002e009000e10f400007003200a2
:101fd4003e0090000000e000040032000041eb00ed
:101fe4008040eb0000c0eb00c7030700ce11900057
:101ff40023079800200320005b04070081fe3700bc
:1020040080fe37000800fa000000eb00000f7800a3
:1020140010002000100798000080eb0020079800b3
:102024000100370090010700a8020700e10f4000fb
:10203400fcff3a004b0037008b010700a3020700a6
:10204400300798001068ef00e4fd070000c0eb00c3
:1020540010e8b7005233280051c0b300a0c0b30049
:102064000d0307001e0078000000e00005003a00a0
:10207400f233280091c1b300a0c0b30006030700e7
:1020840004003700d234280091c1b300a0c0b300cb
:10209400010307001e007800e10f500005003a001c
:1020a400b235280081c2b300a0c0b300fa02070011
:1020b400040037008236280081c2b300a0c0b300f8
:1020c400f50207003e009000e10f400021003200bd
:1020d400be0090002e009000808f50001d00320042
:1020e4003e0090000000e000030032003e0090003b
:1020f400e20f500008003a001e00780000f0a7002c
:102104000000ea00000fe9001e0078004f00de0026
:10211400000f78000d0037003e009000e40f5000df
:10212400030032003e009000e10f500007003a0027
:102134001e0078000000e00003003a000000eb00fd
:1021440010079800010037000b0007006009200009
:1021540005040700be00900021079800200320001a
:10216400010407001e0090000000e000b2ff3a00e6
:102174000080fa00000006001800fa004000200069
:10218400000f780010002000100798000080eb007a
:102194002007980001003700330107004b020700b5
:1021a400e10f4000fcff3a00460037002e01070013
:1021b40046020700600798001068ef0087fd0700db
:1021c40000c0eb0010e8b7005237280051c0b3003c
:1021d400a0c0b300b00207001e007800e40f500056
:1021e40005003a00d237280091c1b300a0c0b30063
:1021f400a9020700040037008238280091c1b30007
:10220400a0c0b300a40207001e007800e80f50002d
:1022140005003a003239280081c2b300a0c0b300df
:102224009d02070004003700e239280081c2b30090
:10223400a0c0b300980207006e009000e10f4000b8
:102244001c003200ee0090002e009000808f5000a1
:10225400180032006e0090000000e000030032001d
:102264006e009000e20f500008003a001e00780053
:10227400e40f500002003a00800020000100370003
:1022840040002000000f7800080037006e00900026
:10229400e40f5000030032006e009000e10f500084
:1022a40002003a000000eb001007980060092000cb
:1022b400ad030700ee0090002107980020032000e2
:1022c400a90307001e0090000000e000b7ff3a00d9
:1022d4000000eb00300798001068ef003ffd070096
:1022e40000c0eb0010e8b700923a2800a1c0b30088
:1022f400a0c0b3006802070039003700da00070005
:10230400f2010700700798007e009000e10f400082
:102314002f003200fe0090002e009000808f5000ad
:102324002b0032007e009000e40f50002b0032009e
:102334007e00900080407800700147003e009000cd
:1023440000004100014878003e0090000000e800d1
:102354003007980000c0eb0010e8b7000000eb0065
:10236400400798000c0037004e00900000407800b1
:102374006600b90000007800004078006a40400020
:10238400a2c2b300e1c1b300e20107004e00900015
:102394000000e80040079800ce0090003e00900046
:1023a400808f5000f0ff350000c1eb008040eb004f
:1023b4000040eb00d4020700400620006a03070037
:1023c4000041eb0080c0eb000040eb00ce020700b0
:1023d400fe00900021079800010037000000000073
:1023e4003e0090009e0f5000c4ff35009e00780010
:1023f400914088000000eb0050079800140037005b
:102404005e0090009e0f500009003d00f000470060
:102414005e009000008040009040780042842000dc
:102424005e0090000000410001487800050037007c
:10243400418420005e009000008040008040eb005a
:10244400014878005e0090000000e8005007980002
:102454005e009000e70f5000e9ff34001068ef00c1
:10246400defc070000c0eb0010e8b700423b280088
:1024740091c1b300a0c0b30007020700c05d2000f3
:10248400390307000080fa00000006000200fa0089
:102494001068ef00d1fc070000c0eb0010e8b700a3
:1024a400b23b2800a1c0b30050c0b300fa0107003a
:1024b400923c280091c1b30050c0b300f60107005c
:1024c400e0012000000f78000f0037001e007800a4
:1024d4003b0207000041eb008040eb0000c0eb0032
:1024e40089020700401f20001f03070000c1eb0002
:1024f4008040eb000040eb0083020700401f2000f7
:10250400190307001e0fe9001e0078000000e00018
:10251400eeff3c001428ef000041eb008040eb008c
:1025240000c0eb00780207001068ef00abfc070066
:1025340000c0eb0010e8b7000080fa0000000600bd
:102544000000fa00400e2000001988002223ef004a
:1025540050f02100201988002823ef003023ef00d9
:1025640021e3a80000000000001980006100600061
:102574000000e000fcff32000018800000408800ea
:1025840021e3a9000080fa00000006000200fa001e
:1025940010f021004016880061198000e00f2e0021
:1025a4000080600060198800c0072000e0198800de
:1025b400f1198000f0cf2f00008060000090a0008f
:1025c400f0198800f1198000f03f200000806000bd
:1025d400f01988002023ef008000200040198800b3
:1025e4003023ef0001198000f0cf2f00008060003d
:1025f4000019880020002000201988002223ef0001
:1026040021e3a8003de3a8000040eb00004f780060
:102614000d0037001e80fb00800040000083200076
:102624000080400001502000010878001e80fb005b
:1026340080004000a083200000804000510620005c
:10264400010878001e4fe8001e407800e44f500057
:10265400f0ff36000368ef0000cab30002e8b700d9
:102664000080fa00000006000600fa00401980000d
:10267400200798002023ef003023ef0020002000e3
:10268400201988002223ef0021e3a8000040eb007a
:10269400004f78000301370003c8bf000080fb002f
:1026a400680040004019880085a0a9002003a90003
:1026b4002023a8000000000000000000000000002b
:1026c4000000000000000000000000000000000006
:1026d400000000003d23a8000000000000000000ee
:1026e4000000000000000000000000003d23a900dd
:1026f40000000000000000000000000000000000d6
:102704000000000085a0a9002023a900000000000b
:102714002104800000002200008060000000e0002e
:10272400fbff3200100280004500de0067406000bd
:102734000080fb001007980011028000000e2000aa
:1027440001007000100288000000000085a0a900ac
:102754002023a8003c23a9003c03a8000040eb0070
:1027640010479800030037001e4090000040e80026
:10277400104798009e40900090c5b30080cf500051
:10278400f9ff36003c03a9001e00900000407800c9
:10279400674060000080fb00670060004500dd00ca
:1027a40012028000f1f12f0081006100010070002d
:1027b400100288000000000085a0a9002023a900c1
:1027c400000000002104800000002200008060005e
:1027d4000000e000fbff3200001880002040880069
:1027e40085a0a9002023a80000000000000000002c
:1027f40000000000000000000000000000000000d5
:1028040000000000000000003d23a80000000000bc
:1028140000000000000000000000000000000000b4
:102824003d23a9000000000000000000000000009b
:102834000000000085a0a9002023a90000000000da
:102844002104800000002200008060000000e000fd
:10285400fbff320085a0a9002003a90020408000ce
:102864004400dd003040880003c8bf000080fb0046
:10287400800040006082200000804000100078004a
:102884004400de004040880003c8bf000080fb0015
:102894003140800000014000c08120000000410060
:1028a4000108780002c8bf000004e00012003200f2
:1028b40002c8bf000040e90002e8b70003c8bf0037
:1028c4000080fb0031408000000140006082200055
:1028d400000041000108780003c8bf000040e80080
:1028e40003e8b70003c8bf00e54f500071003a0089
:1028f4000368ef007000370003c8bf000080fb00ce
:102904008000400060822000008040009000780039
:1029140003c8bf000080fb000001400000832000ca
:1029240000004100100078008080500003c8bf0000
:102934000080fb0000014000a08320000000410053
:10294400100078008080400030408000808f50006c
:102954000600310003c8bf000080fb006181200035
:102964000041eb00827078001500370003c8bf00f7
:102974000080fb0080004000608220000080400056
:102984009000780003c8bf000080fb0000014000f5
:102994000083200000004100100078008080500077
:1029a40030408000808f50000500360003c8bf000f
:1029b4000080fb006181200012c0b30082707800a7
:1029c40003c8bf000080fb0080004000608220003c
:1029d400008040009000780030408000808f5000dc
:1029e4000700310003c8bf000080fb0031408000b5
:1029f40000014000608220000000410001087800ce
:102a040003c8bf000004e00009003a005140800000
:102a1400f0032000808f500004003e0050408000ee
:102a24000000e80050408800010037000a28ef0049
:102a34005140800000042000808f500011003a00b3
:102a440003c8bf000080fb00318020009140780063
:102a54008180fb00018140006182200081004100ef
:102a640011017800234080004140800081805100a2
:102a7400810041000001400060822000000041000c
:102a84000108780003c8bf000040e80003e8b7006d
:102a940003c8bf00e54f500001003a000368ef008f
:102aa4001e4fe8001e407800e44f5000fafe360046
:102ab4000100370000000000a1fe07002e00900076
:102ac400401988000080fa00000006000200fa00a5
:102ad4000000eb00000f7800080037006081200040
:102ae4001e00400010407800e14f500002003a0000
:102af4001e007800050037001e0fe8001e00780055
:102b0400e40f5000f5ff34000080eb000080fa0071
:102b1400000006000c00fa00004f9800114f9800c6
:102b2400224f98000000eb00000f7800ae489000a0
:102b3400f0c2b30080cf500009003400ae489000ca
:102b440090c3b30080cf500005003c002e48900095
:102b54000000fb0011fd2f00010f40002100370091
:102b6400ae48900000c4b30080cf50000900340088
:102b7400ae489000a0c5b30080cf500005003c00d3
:102b84002e4890000000fb00a2fc2f00020f400022
:102b940014003700ae489000a0c2b30080cf5000ac
:102ba40003003a0050022000000f78000d003700a7
:102bb400ae489000e0c3b30080cf500003003a0059
:102bc40060022000000f780006003700ae48900035
:102bd400e0c2b30080cf500002003a00700220002f
:102be400000f78000000eb00100798002500370064
:102bf4001e0078006500b900800078001e00900077
:102c040000804000213d280061417800624798001f
:102c14000000eb0020079800140037006e4090007d
:102c24008080fb002e0090000088de0061006000c0
:102c3400004078000004e000090032001e489000c3
:102c44008080fb002e009000808040000e489000a1
:102c54000081fb001e009000000041008ef9070077
:102c64002e0090000000e800200798002e0090003d
:102c7400e70f5000e9ff34001e0090000000e80058
:102c8400100798001e009000e40f5000d8ff340095
:102c94000080fa00000006000600fa0020479800b1
:102ca40031479800220798002e4090000080fb00d6
:102cb400000f78000c0037002e0090009040780040
:102cc4001e0078000040780001417800be4090006a
:102cd40090ff07009e007800668f40002e00900051
:102ce4000000e800200798002e00900010407800b3
:102cf4000004e000f0ff3a000080fa000000060043
:102d04000800fa00300798001068ef000000eb009c
:102d1400000f78000f0037000000eb001007980048
:102d2400080037001e009000fe0040001e017800dd
:102d34006a00410058f907001e0090000000e800f6
:102d4400100798001e009000e70f5000f5ff3400b4
:102d54001e0fe800100320009e007800808f5000b2
:102d6400edff340000c0eb0010e8b7000000eb00fa
:102d7400200798000c0037002e00900000407800d7
:102d84006600b90000007800004078006a40400006
:102d9400a2c2b300e1c1b3005eff07002e009000a1
:102da4000000e80020079800ae0090003e0090006c
:102db400808f5000f0ff35000080fa00000006000c
:102dc4000600fa00200798001068ef006004200055
:102dd400000f78000f0037000000eb001007980088
:102de400080037001e009000740040008000780046
:102df4001e00780028f907001e0090000000e8007b
:102e0400100798001e009000ef0f5000f5ff3400eb
:102e14001e0fe800f00720009e007800808f50000d
:102e2400edff340000c0eb0010e8b7002e00900066
:102e3400e90f500008003c002e009000004078008c
:102e44000043b0000041780041c1b30060c4b30046
:102e540030ff07001b0037002e019000706626002b
:102e64000090b900c288de004f90de000080500060
:102e7400004078000043b0000041780041c1b30035
:102e840060c4b30023ff0700ae0090007066260004
:102e94000089b9004299de004f88de00000051002d
:102ea4006a01b900020078000080500000407800f8
:102eb4000043b0000041780041c1b300c0c4b30076
:102ec40014ff0700a249280041c1b30020c5b30084
:102ed40071ff07000080fa00000006000000fa00fd
:102ee4001068ef003dfa070000c0eb0010e8b700df
:102ef400e249280041c1b300a0c0b30066ff070047
:102f04000080fa00000006000400fa00004f780078
:102f140011479800224798001e4078000004e00002
:102f2400060032001e80fb000080ea00800078006a
:102f3400f00f200000806000010037000010200026
:102f4400a00c88001e4090000004e000070032003e
:102f54001e4090000080fb000080ea0080007800a2
:102f6400f00f2000008060000100370000102000f6
:102f7400f00c88002e4090000004e00007003200ae
:102f84002e4090000080fb000080ea008000780062
:102f9400f00f2000008060000100370000102000c6
:102fa400400d88000080fa00000006000000fa00ce
:102fb40081368000f00f2c0080806000002021000a
:102fc4000100700080368800803680004800de00f2
:102fd400f043b2008080fb00f0032000008060001a
:102fe4005236800001fc2f00810061000100700056
:102ff40050368800d1368000f00f2c0080806000ad
:103004000030210001007000d0368800d0368000e6
:103014004800de00f043b2008080fb00f003200093
:10302400008060004800dd0092368000f10f2c0023
:10303400810061000100700090368800d136800064
:1030440000fc2f00008060004001b300d0368800ef
:10305400d036800000407800f043b2008080fb004e
:10306400f0032000008060004800dd00a2368000ec
:10307400f10f2c008100610001007000a03688006f
:10308400c826ef000080fa00000006000000fa00e5
:103094001021ef00a421ef00200d8000d00c880047
:1030a400d00c8000800c8800e882a800e8a2a80068
:1030b400f102a800f122a800f0c2a800f0e2a800e2
:1030c4000080fa00000006000000fa00000320005f
:1030d40080088800f00f200060088800001020009d
:1030e400a00c88009621ef00c0002000900c8800fe
:1030f40070002000800c880000102000f00c880074
:10310400a021ef00c0002000e00c88007000200027
:10311400d00c880000102000400d8800aa21ef0088
:10312400c0002000300d880070002000200d8800b1
:10313400e882a900e8a2a900f102a900f122a900ed
:10314400f0c2a900f0e2a900000320007017880073
:10315400003c2000b0178800000028008008880088
:103164000080fa00000006000600fa00200798001c
:10317400210880000003200001007000200888005e
:10318400f0022000100888000021ef0005e1a800eb
:103194006000b800008fbe0010003700000000007f
:1031a40020048000680060000000e000fcff3200a2
:1031b4008460a90012002000030020001e0f4100bb
:1031c4005e974900604080007140800061004000cb
:1031d400e080480060408800714088002e00900024
:1031e4008000eb00be0f5000ae8f5800ebff3e0096
:0c31f40005e1a9000080fa0000000600c0
:020000040000fa
:103200001008000002000000000000004408000058
:10321000080000000200000003000100020000009e
:103220000000000012080000020000000200000080
:10323000040000001408000002000000000000006c
:10324000160800002e00000000000000000800002a
:103250000c000000000000000c080000040000004a
:08326000000000000000000066
:020000040000fa
:020000040005f5
:0457f400ffff0000b3
:020000040000fa
:020000040005f5
:0457f8005e2300002c
:020000040000fa
:020000040005f5
:0457fc007f3e0000ec
:00000001FF
