:020000040000fa
:080000000002040000000000f2
:020000040000fa
:04000800d002000022
:020000040000fa
:04000c00d00200001e
:020000040000fa
:04001000d00200001a
:020000040000fa
:04001400d002000016
:020000040000fa
:04001800d002000012
:020000040000fa
:04001c00d00200000e
:020000040000fa
:04002000d00200000a
:020000040000fa
:04002400d002000006
:020000040000fa
:04002800d002000002
:020000040000fa
:04002c00d0020000fe
:020000040000fa
:04003000d0020000fa
:020000040000fa
:04003400c8020000fe
:020000040000fa
:04003800d0020000f2
:020000040000fa
:04003c00d0020000ee
:020000040000fa
:04004000d0020000ea
:020000040000fa
:04004400d0020000e6
:020000040000fa
:04004800d0020000e2
:020000040000fa
:04004c00d0020000de
:020000040000fa
:04005000d0020000da
:020000040000fa
:04005400d0020000d6
:020000040000fa
:04005800d0020000d2
:020000040000fa
:04005c00d0020000ce
:020000040000fa
:04006000d0020000ca
:020000040000fa
:04006400d0020000c6
:020000040000fa
:04006800d0020000c2
:020000040000fa
:04006c00d0020000be
:020000040000fa
:04007000d0020000ba
:020000040000fa
:04007400d0020000b6
:020000040000fa
:04007800d0020000b2
:020000040000fa
:04007c00d0020000ae
:020000040000fa
:04008000d0020000aa
:020000040000fa
:04008400d0020000a6
:020000040000fa
:04008800d0020000a2
:020000040000fa
:04008c00d00200009e
:020000040000fa
:04009000d00200009a
:020000040000fa
:04009400d002000096
:020000040000fa
:04009800d002000092
:020000040000fa
:04009c00d00200008e
:020000040000fa
:0400a000d00200008a
:020000040000fa
:0400a400d002000086
:020000040000fa
:0400a800d002000082
:020000040000fa
:0400ac00d00200007e
:020000040000fa
:0400b000d00200007a
:020000040000fa
:0400b400d002000076
:020000040000fa
:0400b800d002000072
:020000040000fa
:0400bc00d00200006e
:020000040000fa
:0400c000d00200006a
:020000040000fa
:0400c400d002000066
:020000040000fa
:0400c800d002000062
:020000040000fa
:0400cc00d00200005e
:020000040000fa
:0400d000d00200005a
:020000040000fa
:0400d400d002000056
:020000040000fa
:0400d800d002000052
:020000040000fa
:0400dc00d00200004e
:020000040000fa
:0400e000d00200004a
:020000040000fa
:0400e400d002000046
:020000040000fa
:0400e800d002000042
:020000040000fa
:0400ec00d00200003e
:020000040000fa
:0400f000d00200003a
:020000040000fa
:0400f400d002000036
:020000040000fa
:0400f800d002000032
:020000040000fa
:0400fc00d00200002e
:020000040000fa
:04010000d002000029
:020000040000fa
:04010400d002000025
:020000040000fa
:04010800d002000021
:020000040000fa
:04010c00d00200001d
:020000040000fa
:04011000d002000019
:020000040000fa
:04011400d002000015
:020000040000fa
:04011800d002000011
:020000040000fa
:04011c00d00200000d
:020000040000fa
:04012000d002000009
:020000040000fa
:04012400d002000005
:020000040000fa
:04012800d002000001
:020000040000fa
:04012c00d0020000fd
:020000040000fa
:04013000d0020000f9
:020000040000fa
:04013400d0020000f5
:020000040000fa
:04013800d0020000f1
:020000040000fa
:04013c00d0020000ed
:020000040000fa
:04014000d0020000e9
:020000040000fa
:04014400d0020000e5
:020000040000fa
:04014800d0020000e1
:020000040000fa
:04014c00d0020000dd
:020000040000fa
:04015000d0020000d9
:020000040000fa
:04015400d0020000d5
:020000040000fa
:04015800d0020000d1
:020000040000fa
:04015c00d0020000cd
:020000040000fa
:04016000d0020000c9
:020000040000fa
:04016400d0020000c5
:020000040000fa
:04016800d0020000c1
:020000040000fa
:04016c00d0020000bd
:020000040000fa
:04017000d0020000b9
:020000040000fa
:04017400d0020000b5
:020000040000fa
:04017800d0020000b1
:020000040000fa
:04017c00d0020000ad
:020000040000fa
:04018000d0020000a9
:020000040000fa
:04018400d0020000a5
:020000040000fa
:04018800d0020000a1
:020000040000fa
:04018c00d00200009d
:020000040000fa
:04019000d002000099
:020000040000fa
:04019400d002000095
:020000040000fa
:04019800d002000091
:020000040000fa
:04019c00d00200008d
:020000040000fa
:04020800d002000020
:020000040000fa
:04020c00d00200001c
:020000040000fa
:04021000d002000018
:020000040000fa
:04021400d002000014
:020000040000fa
:04021800d002000010
:020000040000fa
:04021c00d00200000c
:020000040000fa
:04022000d002000008
:020000040000fa
:04022400d002000004
:020000040000fa
:04022800d002000000
:020000040000fa
:04022c00d0020000fc
:020000040000fa
:04023000d0020000f8
:020000040000fa
:04023400c8020000fc
:020000040000fa
:04023800d0020000f0
:020000040000fa
:04023c00d0020000ec
:020000040000fa
:04024000d0020000e8
:020000040000fa
:04024400d0020000e4
:020000040000fa
:04024800d0020000e0
:020000040000fa
:04024c00d0020000dc
:020000040000fa
:04025000d0020000d8
:020000040000fa
:04025400d0020000d4
:020000040000fa
:04025800d0020000d0
:020000040000fa
:04025c00d0020000cc
:020000040000fa
:04026000d0020000c8
:020000040000fa
:04026400d0020000c4
:020000040000fa
:04026800d0020000c0
:020000040000fa
:04026c00d0020000bc
:020000040000fa
:04027000d0020000b8
:020000040000fa
:04027400d0020000b4
:020000040000fa
:04027800d0020000b0
:020000040000fa
:04027c00d0020000ac
:020000040000fa
:04028000d0020000a8
:020000040000fa
:04028400d0020000a4
:020000040000fa
:04028800d0020000a0
:020000040000fa
:04028c00d00200009c
:020000040000fa
:04029000d002000098
:020000040000fa
:04029400d002000094
:020000040000fa
:04029800d002000090
:020000040000fa
:04029c00d00200008c
:020000040000fa
:0402a000d002000088
:020000040000fa
:0402a400d002000084
:020000040000fa
:0402a800d002000080
:020000040000fa
:0402ac00d00200007c
:020000040000fa
:0402b000d002000078
:020000040000fa
:0402b400d002000074
:020000040000fa
:0402b800d002000070
:020000040000fa
:0402bc00d00200006c
:020000040000fa
:0402c000d002000068
:020000040000fa
:0402c400d002000064
:020000040000fa
:0402c800d002000060
:020000040000fa
:0402cc00d00200005c
:020000040000fa
:0402d000d002000058
:020000040000fa
:0402d400d002000054
:020000040000fa
:0402d800d002000050
:020000040000fa
:0402dc00d00200004c
:020000040000fa
:0402e000d002000048
:020000040000fa
:0402e400d002000044
:020000040000fa
:0402e800d002000040
:020000040000fa
:0402ec00d00200003c
:020000040000fa
:0402f000d002000038
:020000040000fa
:0402f400d002000034
:020000040000fa
:0402f800d002000030
:020000040000fa
:0402fc00d00200002c
:020000040000fa
:04030000d002000027
:020000040000fa
:04030400d002000023
:020000040000fa
:04030800d00200001f
:020000040000fa
:04030c00d00200001b
:020000040000fa
:04031000d002000017
:020000040000fa
:04031400d002000013
:020000040000fa
:04031800d00200000f
:020000040000fa
:04031c00d00200000b
:020000040000fa
:04032000d002000007
:020000040000fa
:04032400d002000003
:020000040000fa
:04032800d0020000ff
:020000040000fa
:04032c00d0020000fb
:020000040000fa
:04033000d0020000f7
:020000040000fa
:04033400d0020000f3
:020000040000fa
:04033800d0020000ef
:020000040000fa
:04033c00d0020000eb
:020000040000fa
:04034000d0020000e7
:020000040000fa
:04034400d0020000e3
:020000040000fa
:04034800d0020000df
:020000040000fa
:04034c00d0020000db
:020000040000fa
:04035000d0020000d7
:020000040000fa
:04035400d0020000d3
:020000040000fa
:04035800d0020000cf
:020000040000fa
:04035c00d0020000cb
:020000040000fa
:04036000d0020000c7
:020000040000fa
:04036400d0020000c3
:020000040000fa
:04036800d0020000bf
:020000040000fa
:04036c00d0020000bb
:020000040000fa
:04037000d0020000b7
:020000040000fa
:04037400d0020000b3
:020000040000fa
:04037800d0020000af
:020000040000fa
:04037c00d0020000ab
:020000040000fa
:04038000d0020000a7
:020000040000fa
:04038400d0020000a3
:020000040000fa
:04038800d00200009f
:020000040000fa
:04038c00d00200009b
:020000040000fa
:04039000d002000097
:020000040000fa
:04039400d002000093
:020000040000fa
:04039800d00200008f
:020000040000fa
:04039c00d00200008b
:020000040000fa
:10040000ef8420000e7f24000e0188000000000011
:10041000000020000000e000020032000001200087
:1004200020028800140007005f0007000000e000c1
:1004300003003a00a07621000100200002003700ee
:100440000000200001002000810f70000100320038
:1004500014000700000020000000e000020032004d
:1004600000000200000000000a0d02000000000071
:100470000040da000000fe004440a900c01b20003c
:100480000000e0000300320000002000a00188000e
:100490004440a800000006008a1f78008b1f7800e7
:1004a0000000060091018800800478000000eb0045
:1004b0001a003700e284440032a0b4009905ba0063
:1004c000e284440032a0b4009906ba00e2844400f9
:1004d00032a0b4000006eb00476fde00fd07b2005b
:1004e000636ce10003003a00ebff07000000eb0043
:1004f0000a003700606ce10004003a00005deb0088
:100500008b05e900fdff3e00040037006168e10053
:10051000010032000086eb000b00070019c7ba008b
:100520001905ba000e04e00003003a000a00e000da
:10053000e0ff3a0000000600fe07b2009e018800be
:100540008a047800f5ff3700395dba008b05e900b1
:100550000c003200295dba008b05e900080032006a
:100560000c00e00003003a00e284440032a0b40032
:10057000f5ff370019ddba008b05e900faff3a00f4
:100580008904e800e184440032a0b40000000600c1
:100590000000fa008460a9000080fa000040060014
:1005a0000040da000000fe00000005003200f80004
:1005b000023b8800910188000008bb000500fc0098
:1005c00051052000313b8800a10a2000313b880002
:1005d00061e7a80000000000000000003200f90000
:1005e000000006000400a100010037000400a00084
:1005f0003200f8009101880011002400013b8800be
:10060000f10f20003208bb000400a700b200780000
:100610000198bb008301e900faff3a00680151002c
:100620000400a70068015100680050001208bb00d8
:10063000e2ff3700f30f20003200f800910188003c
:1006400031002400013b88000208bb000388bb0086
:10065000daff37003200f800003b8800d7ff370090
:100660003200f800910188008002780062004000aa
:100670003549ba00e08048003204e0000410a700c9
:10068000100032008301e9000e0032002549ba0053
:100690003204e0000410a7000a0032008301e900e0
:1006a000080032000408a300eeff320015c9ba00aa
:1006b0003204e0000410a700020032008301e900c8
:1006c000e8ff3a003200f900000006006022b8009e
:1006d000060220000000d0008180d2000482d200f7
:1006e0008582d2000000a0000202520083825a00dc
:1006f000030031000202420083824a000000a10090
:0c0700000603e900f3ff3a0000000600c9
:020000040000fa
:10070c00434100004c49000042520000415400009b
:10071c00494e00004700000053540000414e0000b9
:10072c0044420000590000005052000045530000a4
:10073c0053200000434500004e5400004552000079
:10074c00004500004e54000045520000204b0000b4
:10075c004559000000540000494d000045200000a0
:10076c004f55000054000000554e00004c4f000047
:10077c00434b000045440000004b0000455900006d
:10078c0020570000524f00004e470000004d000063
:10079c00414900004e2000004d4500004e55000020
:1007ac00003e0000204c00004f4300004b20000096
:1007bc005359000053540000454d00000020000028
:1007cc00204c00004f4300004b2000005359000008
:1007dc0053540000454d0000003e00002043000033
:1007ec00484100004e470000452000004b450000ea
:1007fc00590000002020000043480000414e00003a
:10080c0047450000204b000045590000004c0000fb
:10081c00454e000047540000483f0000003e0000d9
:10082c0020340000204400004947000049540000d7
:10083c005300000020200000342000004449000038
:10084c004749000054530000003e000020380000cf
:10085c0020440000494700004954000053000000a8
:10086c0020200000382000004449000047490000c7
:10087c0054530000004500004e5400004552000047
:10088c00204e0000455700003a0000005341000084
:10089c00564500004421000000530000595300004d
:1008ac00544500004d2000004c4f0000434b00000d
:1008bc00454400000057000041490000542e000040
:1008cc002e2e0000000000000000000000000000c0
:1008dc00003e000051490000453e00000041000070
:1008ec007f400000007100004949000049460000ab
:1008fc004149000049490000360f0000080800007b
:10090c00087f00004f49000049490000313e0000bb
:10091c00494900004932000001010000790500003e
:10092c000336000049490000493600002649000002
:10093c00494900003e7e000011110000117e0000ac
:10094c007f49000049490000363e0000414100004b
:10095c00412200007f410000412200001c7f00006a
:10096c0049490000494100007f09000009090000c5
:10097c00013e000041490000497a00007f08000058
:10098c00080800007f000000417f000041000000cb
:10099c0020400000413f0000017f000008140000cf
:1009ac00224100007f40000040400000407f0000da
:1009bc00020c0000027f00007f0400000810000001
:1009cc007f3e000041410000413e00007f090000d5
:1009dc0009090000063e000041510000215e0000a4
:1009ec007f09000019290000464600004949000013
:1009fc0049310000010100007f010000013f0000af
:100a0c0040400000403f00001f200000402000003c
:100a1c001f3f000040380000403f000063140000fe
:100a2c0008140000630700000870000008070000ad
:100a3c006151000049450000430800001c3e0000c5
:100a4c001c080000004100002214000008000000f7
:100a5c0060600000000000005345000043000000ef
:100a6c00434100004c490000425200004154000038
:080a7c00494e00004700000094
:020000040000fa
:100a84000800fa002007980031079800be00900083
:100a9400800720000088b900000178002e00900033
:100aa4006000b9000000780000014100ae00900031
:100ab400800720000008b80001014100820078008e
:100ac400008fbe001e00be00c002b1000180b10054
:100ad400008fbe001e00be00e00f5000e08f5800e3
:100ae40009003400040037001e00be006b005000f3
:100af400e0805800008fbe001e00be00e00f5000d2
:100b0400e08f5800f8ff3c000080fa000000060067
:100b14000400fa00100798000f00370040c0b3002b
:100b2400004f7800030037009001200001002000ee
:100b3400d3ff07001e4078008080fb008100ea009c
:100b4400cf08de00814078000040e900004f7800c3
:100b54000104e000f4ff3a001e00900000f0a7003a
:100b64000000ea000000ea004f00de0000407800c8
:100b74009e0090008100e900110798000004e00045
:100b8400e6ff3a000080fa00000006000200fa00c6
:100b9400004f78001e80fb00403088001130800038
:100ba40000002800008060000000e000fbff3a0025
:100bb4000080fa00000006000200fa0040308000c5
:100bc400004f780011308000000028000080600091
:100bd4000000e000fbff3a0001e6a900403080007d
:100be400004f780001e6a8001e4078000080fa005b
:100bf400000006000200fa0040308000004f780038
:100c04001130800000002800008060000000e00037
:100c1400fbff3a001e4078000080fa000000060046
:100c24000400fa0041308000010f78001e007800b3
:100c34004800dd00000f780011308000000028001b
:100c4400008060000000e000fbff3a0040308000bc
:100c5400204798002e4090000080fb001e0f60008b
:100c64001130800000002800008060000000e000d7
:100c7400fbff3a001e0078000080fa000000060026
:100c84000400fa003005200001002000008fbe009f
:100c9400dc42a900d842a900c9e2a900dd62a8008b
:100ca400d962a9000226ef000c26ef000026ef000f
:100cb40011308000f0cf2f00008060000090a00071
:100cc4001030880011308000f0f32f0000806000a5
:100cd4001030880050062000010020001e01be00d4
:100ce400800f5100818f59000600360011308000ba
:100cf40030fc2f00008060000020a000103088002d
:100d04001500370050062000010020001e01be001f
:100d1400800f5100818f59000f003e001e01be005c
:100d2400600620000100200067fe070000407800f4
:100d34000040e8006f4060000080fb006f0060002e
:100d44004200dd001230800031fc2f008100610080
:100d540001007000103088001e01be00e000200079
:100d640001002000800f5100818f590005003600da
:100d740011308000c0ff2f00008060001030880018
:100d8400140037001e01be00e00020000100200016
:100d9400800f5100818f59000e003e001e01be00dd
:100da400f00020000100200047fe0700004078000a
:100db4000040e800634060000080fb0063006000c6
:100dc40012308000c1ff2f0081006100010070001b
:100dd400103088000346a9000126a80000308000d6
:100de4004900de00614060000080fb00610060009b
:100df4004800dd00013080000180a1000100700086
:100e04000030880001e6a800dc42a8004001200070
:100e1400010020001aff07000080fa00000006000d
:100e24001e00fa003005200001002000008fbe00e3
:100e3400dc42a900d842a900c9e2a900dd62a800e9
:100e4400d962a9000226ef000c26ef000026ef006d
:100e540011308000f0cf2f00008060000090a000cf
:100e64001030880011308000f0f32f000080600003
:100e74001030880050062000010020001e01be0032
:100e8400800f5100818f5900060036001130800018
:100e940030fc2f00008060000020a000103088008b
:100ea4001500370050062000010020001e01be007e
:100eb400800f5100818f59000f003e001e01be00bb
:100ec4006006200001002000fffd070000407800bc
:100ed4000040e8006f4060000080fb006f0060008d
:100ee4004200dd001230800031fc2f0081006100df
:100ef40001007000103088001e01be00e0002000d8
:100f040001002000800f5100818f59000500360038
:100f140011308000c0ff2f00008060001030880076
:100f2400140037001e01be00e00020000100200074
:100f3400800f5100818f59000e003e001e01be003b
:100f4400f000200001002000dffd070000407800d1
:100f54000040e800634060000080fb006300600024
:100f640012308000c1ff2f00810061000100700079
:100f7400103088000346a9000126a8000030800034
:100f84004900de00614060000080fb0061006000f9
:100f94004800dd00013080000180a10001007000e4
:100fa4000030880001e6a800dc42a80040012000cf
:100fb40001002000b2fe0700dd62a900cde2a90015
:100fc400e0cab300404798004e4090000080fb0008
:100fd400403088001130800000002800008060004c
:100fe4000000e000fbff3a00b0cdb300504798008a
:100ff4005e4090000080fb0040308800113080008b
:1010040000002800008060000000e000fbff3a00c0
:1010140030c2b300604798006e4090000080fb002f
:1010240040308800113080000000280000806000fb
:101034000000e000fbff3a0090cdb3007047980039
:101044007e4090000080fb0040308800113080001a
:1010540000002800008060000000e000fbff3a0070
:1010640020c2b300004f98000e4890000080fb009f
:1010740040308800113080000000280000806000ab
:101084000000e000fbff3a0010cab300104f9800c4
:101094001e4890000080fb00403088001130800022
:1010a40000002800008060000000e000fbff3a0020
:1010b40080ccb300204f98002e4890000080fb00a5
:1010c400403088001130800000002800008060005b
:1010d4000000e000fbff3a00a0cdb300304f9800c1
:1010e4003e4890000080fb004030880011308000b2
:1010f40000002800008060000000e000fbff3a00d0
:1011040020c1b300404f98004e4890000080fb007f
:10111400403088001130800000002800008060000a
:101124000000e000fbff3a0080cab300504f980073
:101134005e4890000080fb00403088001130800041
:1011440000002800008060000000e000fbff3a007f
:10115400f0c3b300604f98006e4890000080fb001d
:1011640040308800113080000000280000806000ba
:101174000000e000fbff3a0050cdb300704f980030
:101184007e4890000080fb004030880011308000d1
:1011940000002800008060000000e000fbff3a002f
:1011a40000cab300005798000e5090000080fb0066
:1011b400403088001130800000002800008060006a
:1011c4000000e000fbff3a0010c8b300105798007d
:1011d4001e5090000080fb004030880011308000d9
:1011e40000002800008060000000e000fbff3a00df
:1011f40000c6b300205798002e5090000080fb00da
:101204004030880011308000000028000080600019
:101214000000e000fbff3a0030cdb30030579800e7
:101224003e5090000080fb00403088001130800068
:1012340000002800008060000000e000fbff3a008e
:101244000040eb00405798004e5090000080fb0097
:1012540040308800113080000000280000806000c9
:101264000000e000fbff3a0060cab300505798004a
:101274005e5090000080fb004030880011308000f8
:1012840000002800008060000000e000fbff3a003e
:10129400d0cab300605798006e5090000080fb00e5
:1012a4004030880011308000000028000080600079
:1012b4000000e000fbff3a00b0c8b300705798008c
:1012c4007e5090000080fb00403088001130800088
:1012d40000002800008060000000e000fbff3a00ee
:1012e400f0cab300005f98000e5890000080fb0025
:1012f4004030880011308000000028000080600029
:101304000000e000fbff3a006009200000fe070037
:1013140040cab300105f98001e5890000080fb0084
:1013240040308800113080000000280000806000f8
:101334000000e000fbff3a0000c4b300205f980007
:101344002e5890000080fb0040308800113080004f
:1013540000002800008060000000e000fbff3a006d
:1013640020c0b300305f98003e5890000080fb001e
:1013740040308800113080000000280000806000a8
:101384000000e000fbff3a0000c1b300405f98009a
:101394004e5890000080fb004030880011308000df
:1013a40000002800008060000000e000fbff3a001d
:1013b40010002000d6fd0700dd62a800cde2a800e1
:1013c4000080fa00000006001400fa00000f9800e4
:1013d400110f98001e089000e70f500003003c0016
:1013e40000cbb300004f7800290037001e0890009e
:1013f400ef0f500003003c0010cbb300004f780007
:10140400230037001e089000f70f500003003c0033
:1014140020cbb300004f78001d0037001e08900059
:10142400ff0f500003003c0030cbb300004f7800a6
:10143400170037009e08900070022000808f500033
:1014440003003c0040cbb300004f7800100037008d
:101454009e089000f0022000808f500003003c00a2
:1014640050cbb300004f7800090037009e0890006d
:1014740070032000808f500003003c0060cbb30059
:10148400004f78000200370070cbb300004f7800a3
:101494000e0890000040780000c0e8002047980043
:1014a4002e4090006f406000304798002e4090001e
:1014b4000080fb004400de00004078000044a000ef
:1014c400404798001e0890004380de0020479800a3
:1014d4002e4090004300dd00204798001e08900035
:1014e400804078002e40900000c0500020479800b3
:1014f4002e4090000080fb00110020000008dd0059
:1015040050479800dd62a900cde2a9009e40780012
:10151400614798006e4090000080fb0040308800d6
:101524001130800000002800008060000000e0000e
:10153400fbff3a00be409000714798007e40900047
:101544000080fb004030880011308000000028003b
:10155400008060000000e000fbff3a00ce409000f5
:10156400014f98000e4890000080fb004030880036
:101574001130800000002800008060000000e000be
:10158400fbff3a00cde2a80040308000104f9800e5
:101594001130800000002800008060000000e0009e
:1015a400fbff3a001e48900010479800403080002e
:1015b400204f980011308000000028000080600057
:1015c4000000e000fbff3a002e489000104798000e
:1015d40040308000304f9800113080000000280017
:1015e400008060000000e000fbff3a003e489000ed
:1015f4001047980014c8bf000004e0000500320042
:101604009e4090005e40900000c07000104798001b
:10161400050037005e40900080c0ea001e40900044
:1016240000c0600010479800cde2a9009e407800f9
:10163400414f98004e4890000080fb0040308800e5
:101644001130800000002800008060000000e000ed
:10165400fbff3a00be409000514f98005e48900056
:101664000080fb004030880011308000000028001a
:10167400008060000000e000fbff3a00ce409000d4
:10168400614f98006e4890000080fb004030880055
:101694001130800000002800008060000000e0009d
:1016a400fbff3a00cde2a8009e409000714f9800e5
:1016b4007e4890000080fb0040308800113080009c
:1016c40000002800008060000000e000fbff3a00fa
:1016d400dd62a8000080fa00000006001000fa0095
:1016e40060079800710798007e009000e70f500093
:1016f40003003c0000cbb300004f78002900370002
:101704007e009000ef0f500003003c0010cbb300ac
:10171400004f7800230037007e009000f70f500040
:1017240003003c0020cbb300004f78001d003700bd
:101734007e009000ff0f500003003c0030cbb3004c
:10174400004f780017003700fe0090007002200060
:10175400808f500003003c0040cbb300004f780062
:1017640010003700fe009000f0022000808f50002f
:1017740003003c0050cbb300004f78000900370051
:10178400fe00900070032000808f500003003c0096
:1017940060cbb300004f78000200370070cbb30079
:1017a400004f78006e0090000040780000c0e80010
:1017b400104798001e4090006f406000204798003a
:1017c4001e4090000080fb004400de0000407800d2
:1017d4000044a000304798007e0090004380de0063
:1017e400404798004e4090004300dd004047980079
:1017f4007e009000804078004e40900000c0500071
:10180400404798004e4090000080fb0011002000eb
:101814000008dd0050479800dd62a900cde2a90070
:101824009e407800714798007e4090000080fb0045
:1018340040308800113080000000280000806000e3
:101844000000e000fbff3a00ae409000014f98001a
:101854000e4890000080fb0040308800113080006a
:1018640000002800008060000000e000fbff3a0058
:10187400be409000114f98001e4890000080fb006d
:101884004030880011308000000028000080600093
:101894000000e000fbff3a00cde2a80040308000e9
:1018a400204f980011308000000028000080600064
:1018b4000000e000fbff3a002e48900060479800cb
:1018c40040308000304f9800113080000000280024
:1018d400008060000000e000fbff3a0001e6a90080
:1018e40040308000304f980001e6a8003e48900048
:1018f40060479800dd62a800ee4090005e409000d2
:1019040000c060000080fa00000006000600fa0033
:10191400dd62a90000cbb300004f7800350037002a
:10192400cde2a9009e407800214798002e40900007
:101934000080fb0040308800113080000000280047
:10194400008060000000e000fbff3a000040eb0074
:10195400304798003e4090000080fb0040308800f3
:101964001130800000002800008060000000e000ca
:10197400fbff3a0000c1b300404798004e4090007e
:101984000080fb00403088001130800000002800f7
:10199400008060000000e000fbff3a00cde2a800f8
:1019a4000040eb00104798000d00370014c8bf003a
:1019b400504798005e4090000080fb004030880053
:1019c4001130800000002800008060000000e0006a
:1019d400fbff3a001e4090000040e80010479800ca
:1019e4009e40900030c8b30080cf5000efff360017
:1019f4001e4fe80070cbb3009e40780080cf5000ab
:101a0400c7ff3600dd62a8000080fa00000006006f
:101a14003a00fa00889fbe0020302300103a880064
:101a24004427ef00c80307008e090700d409070004
:101a3400fbfc0700c180200060842000d908070057
:101a44001468ef00b1ff070000c0eb0014e8b70012
:101a54006238280041c1b300a0c0b300c807070022
:101a64000000eb00000f780002003700ed030700d0
:101a74001e0fe800900f20009e007800808f500019
:101a8400faff34001468ef00a0ff07000000eb0029
:101a9400100798000080eb00200798001000200039
:101aa400201798008e0078002103b000030009007d
:101ab4008018eb0010002000300798000000eb00b5
:101ac400400798006000b80050079800610798002c
:101ad400824080009340800072079800030f9800b2
:101ae4000080eb00100f98000000eb00200f98001e
:101af4006000b800300f9800410f98000000eb0020
:101b0400500f980000c0eb0014e8b70022392800f9
:101b140041c1b300a0c0b30099070700a23928004f
:101b240031c2b300a0c0b300950707000041eb0029
:101b34008040eb0000c0eb0021090700b903070057
:101b4400d104070030179800824080009340800041
:101b54007e0090008e0890000001510081815900a0
:101b6400f070220001002000800f5100818f590085
:101b7400320036003e0090000000e0000e0032000b
:101b8400350307000000eb00300798000000eb006d
:101b940010079800824080009340800072079800ec
:101ba400030f980040002000200798002003200025
:101bb4000f08070076013700100020003007980056
:101bc4000000eb00100798000000eb00500f980095
:101bd4000000eb00400798008240800093408000a2
:101be40072079800030f98001468ef0047ff07007e
:101bf40000c0eb0014e8b7002239280041c1b3004b
:101c0400a0c0b3005e070700a239280031c2b300a8
:101c1400a0c0b3005a0707000041eb008040eb006e
:101c240000c0eb00e6080700be11900023079800ef
:101c340020032000ee070700550137003e00900006
:101c44000000e0001f0032003e109000e40f50003e
:101c540017003a002e009000e10f400014003a00f3
:101c64000000eb00300798000000eb00100798001c
:101c7400824080009340800072079800030f980010
:101c84001468ef0021ff070000c0eb0014e8b70060
:101c9400723a2800a1c0b300a0c0b30038070700ff
:101ca4000041eb008040eb0000c0eb00c4080700db
:101cb400be1190002307980020032000cc070700e2
:101cc400330137004e0090000000e0003e00320077
:101cd40082408000934080005e009000ee009000ff
:101ce4000000510081805900401798005117980056
:101cf4004e109000de109000823e20000300200071
:101d040071fa0700000078006f0010006017980057
:101d14006e1090000000e00023003c000000eb0087
:101d2400400798000000eb00100798000000eb004b
:101d3400500f98000080eb00100f98001468ef001b
:101d4400f2fe070000c0eb0014e8b700123b2800c5
:101d5400f1c0b300a0c0b30009070700007d200054
:101d6400a30707001468ef00e8fe070000c0eb00bb
:101d740014e8b700723a2800a1c0b300a0c0b300b1
:101d8400ff0607008240800093408000720798009d
:101d9400030f9800be119000230798002003200031
:101da40093070700fa003700ee1090001e08900019
:101db400808f5000040032006e1090003a07070034
:101dc400ee109000110f98005e0890000000e000f3
:101dd4003f0032002e0890000000e0003c00340078
:101de40082408000934080003e089000ce0890001e
:101df400000051008180590070179800011f98005d
:101e04007e1190008e1990007025200001002000a2
:101e1400800f5100818f5900050036000000eb004f
:101e2400500f98002e089000ef0607002800370096
:101e34007e1090008e189000c21220000300200033
:101e440021fa070000007800610060008004eb00c4
:101e5400000478000800be00e00f5000e08f580036
:101e640003003a002e089000df0607001800370030
:101e74001468ef000000eb00600f980011003700b9
:101e84000000eb00700f9800080037007e089000f7
:101e9400fe0040006e0890006a0040004afd070002
:101ea4007e0890000000e800700f98007e08900003
:101eb400e70f5000f5ff34006e0890000000e800c2
:101ec400600f98006e089000fd0f5000ecff340086
:101ed4003e109000e10f40009b0032002e00900065
:101ee400e10f400098003a00824080009340800057
:101ef40072079800030f98001e0090000000e00095
:101f040009003a004e0090000000e00006003a008c
:101f14001000200040079800824080009340800019
:101f2400520798006307980000c1eb008040eb0063
:101f34000040eb0022080700604080009e009000f3
:101f4400808f500014003d003e10900080407800c7
:101f5400220320000e0141001e00900000004100f9
:101f6400014878001e0090000000e8001007980067
:101f74001e0090009c0607009e019000230f98000d
:101f840010002000500f9800824080009340800091
:101f9400320f9800430f9800604080009e0090002c
:101fa400808f500068003a000000eb004007980062
:101fb40010002000001798000000eb001017980094
:101fc40011003700210320008e8040001e10900075
:101fd4000080400090407800628420001e10900031
:101fe400000041001040780080cf50000300320010
:101ff4000000eb0000179800070037001e10900047
:102004000000e80010179800604080009e109000c7
:10201400808f5000ebff35001468ef003bfe070093
:1020240000c0eb0014e8b7000e1090000000e000c0
:10203400230032001628ef00a23b280041c1b30060
:10204400a0c0b3004e0607000041eb0080c0eb00c7
:102054000040eb00da070700803e2000e40607009a
:102064004c000700100020003007980082408000d8
:102074009340800072079800030f98001468ef00e3
:1020840022fe070000c0eb0014e8b7002239280044
:1020940041c1b300a0c0b30039060700a23928002b
:1020a40031c2b300a0c0b300350607000041eb0005
:1020b4008040eb0000c0eb00c10707001e003700a2
:1020c400323c2800f1c0b300a0c0b3002c060700c6
:1020d4000041eb008040eb0000c0eb00b8070700b4
:1020e400b04080000000e800b0408800b0408000ac
:1020f400e20f500002003400aa010700020037007a
:10210400007d2000ba0607001468ef00fffd0700f9
:1021140000c0eb0014e8b700723a2800a1c0b30075
:10212400a0c0b300160607008240800093408000e0
:1021340072079800030f98000000eb001007980046
:102144000000eb00500f98003e109000e10f40009b
:102154000a003a002e009000e10f40000700320010
:102164002e1090000000e000040032000041eb005b
:102174008040eb0000c0eb0091070700be11900007
:102184002307980020032000990607006bfe370000
:102194006afe37000e00fa000000eb00000f780022
:1021a40010002000100798000080eb002007980022
:1021b4001000200030079800824080009340800087
:1021c40042079800530798000100370015020700e2
:1021d4002d030700e10f4000fcff3a0067003700c1
:1021e400100207002803070060079800824080005f
:1021f400934080004e009000de00900000015100ea
:10220400818159000053270001002000800f5100f4
:10221400818f59005d003e003e0090000000e00008
:10222400220032001468ef00b8fd070000c0eb0084
:1022340014e8b700d23c280051c0b300a0c0b300da
:10224400cf0507001e0078000000e00005003a00fa
:10225400723d280091c1b300a0c0b300c8050700b7
:1022640004003700523e280091c1b300a0c0b3005f
:10227400c30507001e007800e10f500005003a0076
:10228400323f280081c2b300a0c0b300bc050700e0
:10229400040037000240280081c2b300a0c0b3008c
:1022a400b70507000000eb00300798006e009000af
:1022b400e10f40002d003200ee0090002e0090004f
:1022c400808f5000290032008240800093408000bb
:1022d40042079800530798006e0090000000e00049
:1022e400030032006e009000e20f50000a003a0032
:1022f4001e00780000f0a7000000ea00000fe900cb
:102304001e0078004f00de00000f7800100020004f
:1023140030079800130037006e009000e40f50005f
:10232400030032006e009000e10f50000d003a00ef
:102334001e0078000000e00003003a000000eb00fb
:102344001007980007003700130007001000200052
:102354003007980082408000934080004207980034
:10236400530798006009200021060700ee01900041
:1023740023079800200320001d0607001e0090007c
:102384000000e00096ff3a00010037000000000062
:102394000080fa00000006001e00fa004000200041
:1023a400000f780010002000100798000080eb0058
:1023b4002007980010002000300798008240800019
:1023c40093408000420798005307980001003700ab
:1023d40094010700ac020700e10f4000fcff3a0043
:1023e4005c0037008f010700a7020700100f980058
:1023f40082408000934080004e009000de009000f8
:102404000001510081815900005327000100200080
:10241400800f5100818f5900dd003e003e00900086
:102424000000e000220032001468ef0037fd0700ce
:1024340000c0eb0014e8b700d240280051c0b3003c
:10244400a0c0b3004e0507001e007800e40f500042
:1024540005003a005241280091c1b300a0c0b30066
:1024640047050700040037000242280091c1b30069
:10247400a0c0b300420507001e007800e80f50001a
:1024840005003a00b242280081c2b300a0c0b300e4
:102494003b050700040037006243280081c2b300f3
:1024a400a0c0b300360507000000eb003007980019
:1024b4001e089000e10f4000220032009e089000a8
:1024c4002e009000808f50001e0032008240800059
:1024d4009340800042079800530798001e0890001c
:1024e4000000e000030032001e089000e20f5000dc
:1024f4000a003a001e007800e40f500002003a007f
:10250400800020000100370040002000000f780008
:102514001000200030079800080037001e089000c3
:10252400e40f5000030032001e089000e10f500039
:1025340002003a000000eb00100798006009200038
:10254400ab0507009e099000230798002003200094
:10255400a70507001e0090000000e000a1ff3a005c
:102564000000eb00600798008240800093408000e8
:1025740042079800530798001468ef00e3fc070033
:1025840000c0eb0014e8b70012442800a1c0b30057
:10259400a0c0b300fa0407000100370021010700be
:1025a40039020700e10f4000fcff3a000080eb0015
:1025b40020079800480037001a010700320207007c
:1025c400200f980082408000934080004e009000cd
:1025d400de00900000015100818159000053270062
:1025e40001002000800f5100818f59006a003e00d5
:1025f4002e089000e10f400033003200ae08900036
:102604002e009000808f50002f0032008240800006
:102614009340800042079800530798002e089000ca
:10262400e40f50002b0032002e0890008040780008
:10263400760147006e0090000000410001487800d8
:102644006e0090000000e8006007980000c0eb00f6
:1026540014e8b7000000eb00700798000c00370086
:102664007e009000004078006600b9000000780009
:10267400004078006a404000a2c2b300e1c1b30048
:102684005e0407007e0090000000e80070079800d8
:10269400fe0090006e009000808f5000f0ff350027
:1026a40000c1eb008040eb000040eb004406070053
:1026b400400620004e0507000041eb0080c0eb00ff
:1026c4000040eb003e060700ae0990002307980087
:1026d40001003700000000006e0090009e0f5000c3
:1026e400b5ff35009e007800614088000000eb00d3
:1026f400000f9800140037000e0890009e0f500041
:1027040009003d00f60047000e08900000804000dc
:1027140090407800628420000e0890000000410080
:102724000148780005003700618420000e089000fd
:10273400008040008040eb00014878000e089000c3
:102744000000e800000f98000e089000e70f50000a
:10275400e9ff34006040800080007800608420003d
:10276400480507001468ef0068fc070000c0eb0090
:1027740014e8b700c244280091c1b300a0c0b3005c
:102784007f040700c05d200019050700030037001f
:102794000000000001003700000000000080fa0083
:1027a400000006000200fa001468ef0057fc07005e
:1027b40000c0eb0014e8b70032452800a1c0b30004
:1027c40050c0b3006e0407001246280091c1b30044
:1027d40050c0b3006a040700e0012000000f780035
:1027e4000f0037001e007800af0407000041eb0023
:1027f4008040eb0000c0eb00f1050700401f200003
:10280400fb04070000c1eb008040eb000040eb003c
:10281400eb050700401f2000f50407001e0fe90028
:102824001e0078000000e000eeff3c001628ef00d8
:102834000041eb008040eb0000c0eb00e005070026
:102844001468ef0031fc070000c0eb0014e8b70087
:102854000080fa00000006000000fa001468ef008f
:102864002afc07000041eb008040eb000040eb0035
:10287400d30507000421ef000021ef0021088000a8
:1028840000032000010070002008880000002400dc
:10289400100888008460a9009460a80005e1a800dd
:1028a40001003700000000000140fe005d00070049
:1028b40075010700e40f5000faff3a0005e1a90092
:1028c4009460a9001468ef0010fc070000c0eb003e
:1028d40014e8b700723a2800a1c0b300a0c0b30046
:1028e400270407000041eb008040eb0000c0eb0030
:0c28f400b30507000080fa000000060099
:020000040000fa
:102900000000fa00400e2000001988002223ef008a
:1029100050f02100201988002823ef003023ef0019
:1029200021e3a800000000000019800061006000a1
:102930000000e000fcff320000188000004088002a
:1029400021e3a9000080fa00000006000200fa005e
:1029500010f021004016880061198000e00f2e0061
:102960000080600060198800c0072000e01988001e
:10297000f1198000f0cf2f00008060000090a000cf
:10298000f0198800f1198000f03f200000806000fd
:10299000f01988002023ef008000200040198800f3
:1029a0003023ef0001198000f0cf2f00008060007d
:1029b0000019880020002000201988002223ef0041
:1029c00021e3a8003de3a8000040eb00004f7800a1
:1029d0000d0037001e80fb00800040002083200097
:1029e0000080400001502000010878001e80fb009c
:1029f00080004000c083200000804000510620007d
:102a0000010878001e4fe8001e407800e44f500097
:102a1000f0ff36000368ef0000cab30002e8b70019
:102a20000080fa00000006000600fa00401980004d
:102a3000200798002023ef003023ef002000200023
:102a4000201988002223ef0021e3a8000040eb00ba
:102a5000004f78000301370003c8bf000080fb006f
:102a6000680040004019880085a0a9002003a90043
:102a70002023a8000000000000000000000000006b
:102a80000000000000000000000000000000000046
:102a9000000000003d23a80000000000000000002e
:102aa0000000000000000000000000003d23a9001d
:102ab0000000000000000000000000000000000016
:102ac0000000000085a0a9002023a900000000004c
:102ad0002104800000002200008060000000e0006f
:102ae000fbff3200100280004500de0067406000fe
:102af0000080fb001007980011028000000e2000eb
:102b000001007000100288000000000085a0a900ec
:102b10002023a8003c23a9003c03a8000040eb00b0
:102b200010479800030037001e4090000040e80066
:102b3000104798009e40900090c5b30080cf500091
:102b4000f9ff36003c03a9001e0090000040780009
:102b5000674060000080fb00670060004500dd000a
:102b600012028000f1f12f0081006100010070006d
:102b7000100288000000000085a0a9002023a90001
:102b8000000000002104800000002200008060009e
:102b90000000e000fbff32000018800020408800a9
:102ba00085a0a9002023a80000000000000000006c
:102bb0000000000000000000000000000000000015
:102bc00000000000000000003d23a80000000000fd
:102bd00000000000000000000000000000000000f5
:102be0003d23a900000000000000000000000000dc
:102bf0000000000085a0a9002023a900000000001b
:102c00002104800000002200008060000000e0003d
:102c1000fbff320085a0a9002003a900204080000e
:102c20004400dd003040880003c8bf000080fb0086
:102c3000800040008082200000804000100078006a
:102c40004400de004040880003c8bf000080fb0055
:102c50003140800000014000e08120000000410080
:102c60000108780002c8bf000004e0001200320032
:102c700002c8bf000040e90002e8b70003c8bf0077
:102c80000080fb0031408000000140008082200075
:102c9000000041000108780003c8bf000040e800c0
:102ca00003e8b70003c8bf00e54f500071003a00c9
:102cb0000368ef007000370003c8bf000080fb000e
:102cc000800040008082200000804000900078005a
:102cd00003c8bf000080fb000001400020832000eb
:102ce00000004100100078008080500003c8bf0041
:102cf0000080fb0000014000c08320000000410074
:102d0000100078008080400030408000808f5000ac
:102d10000600310003c8bf000080fb008181200055
:102d20000041eb00827078001500370003c8bf0037
:102d30000080fb0080004000808220000080400076
:102d40009000780003c8bf000080fb000001400035
:102d50002083200000004100100078008080500097
:102d600030408000808f50000500360003c8bf004f
:102d70000080fb008181200012c0b30082707800c7
:102d800003c8bf000080fb0080004000808220005c
:102d9000008040009000780030408000808f50001c
:102da0000700310003c8bf000080fb0031408000f5
:102db00000014000808220000000410001087800ee
:102dc00003c8bf000004e00009003a005140800041
:102dd000f0032000808f500004003e00504080002f
:102de0000000e80050408800010037000a28ef008a
:102df0005140800000042000808f500011003a00f4
:102e000003c8bf000080fb003180200091407800a3
:102e10008180fb000181400081822000810041000f
:102e200011017800234080004140800081805100e2
:102e3000810041000001400080822000000041002c
:102e40000108780003c8bf000040e80003e8b700ad
:102e500003c8bf00e54f500001003a000368ef00cf
:102e60001e4fe8001e407800e44f5000fafe360086
:102e70000100370000000000a1fe07002e009000b6
:102e8000401988000080fa00000006000200fa00e5
:102e90000000eb00000f7800080037008081200060
:102ea0001e00400010407800e14f500002003a0040
:102eb0001e007800050037001e0fe8001e00780095
:102ec000e40f5000f5ff34000080eb000080fa00b2
:042ed00000000600f8
:020000040000fa
:102ed4001408000002000000000000004608000082
:102ee40008000000020000000300010002000000ce
:102ef400000000000c0800000400000002000000b4
:102f04000400ff00ff00000016080000020000009b
:102f140000000000180800002e000000000000005f
:102f2400000800000c000000000000001008000071
:0c2f34000400000000000000000000008d
:020000040000fa
:10300000ffff0000000000000000000000000000c2
:1030100000000000000000000000000000000000b0
:1030200000000000000000000000000000000000a0
:103030000000000000000000000000000000000090
:103040000000000000000000000000000000000080
:020000040000fa
:103800000c00fa00004f9800114f9800224f9800ca
:103810000000eb00000f7800ae489000f0c2b3004b
:1038200080cf500009003400ae48900090c3b30030
:1038300080cf500005003c002e4890000000fb00a7
:1038400011fd2f00010f400021003700ae4890000d
:1038500000c4b30080cf500009003400ae4890008f
:10386000a0c5b30080cf500005003c002e4890005a
:103870000000fb00a2fc2f00020f400014003700e4
:10388000ae489000a0c2b30080cf500003003a00c1
:1038900050022000000f78000d003700ae48900065
:1038a000e0c3b30080cf500003003a006002200064
:1038b000000f780006003700ae489000e0c2b30069
:1038c00080cf500002003a0070022000000f780004
:1038d0000000eb0010079800250037001e0078005c
:1038e0006500b900800078001e0090000080400054
:1038f000a146280061417800624798000000eb0073
:1039000020079800140037006e4090008080fb0074
:103910002e0090000088de0061006000004078000a
:103920000004e000090032001e4890008080fb0087
:103930002e009000808040000e4890000081fb0027
:103940001e00900000004100a0f607002e0090002d
:103950000000e800200798002e009000e70f5000bc
:10396000e9ff34001e0090000000e80010079800f6
:103970001e009000e40f5000d8ff34000080fa00d1
:10398000000006000600fa00204798003147980022
:10399000220798002e4090000080fb00000f780066
:1039a0000c0037002e009000904078001e00780038
:1039b0000040780001417800be40900090ff070071
:1039c0009e007800668f40002e0090000000e80006
:1039d000200798002e009000104078000004e000be
:1039e000f0ff3a000080fa00000006000800fa002c
:1039f000300798001468ef000000eb00000f78001b
:103a00000f0037000000eb00100798000800370097
:103a10001e009000fe0040001e0178006a00410078
:103a20006af607001e0090000000e80010079800ea
:103a30001e009000e70f5000f5ff34001e0fe80055
:103a4000100320009e007800808f5000edff3400ae
:103a500000c0eb0014e8b7000000eb00200798005e
:103a60000c0037002e009000004078006600b9007e
:103a700000007800004078006a404000a2c2b30015
:103a8000e1c1b3005eff07002e0090000000e800d7
:103a900020079800ae0090003e009000808f5000fc
:103aa000f0ff35000080fa00000006000600fa0072
:103ab000200798001468ef0060042000000f7800d1
:103ac0000f0037000000eb001007980008003700d7
:103ad0001e00900074004000800078001e007800f6
:103ae0003af607001e0090000000e800100798005a
:103af0001e009000ef0f5000f5ff34001e0fe8008d
:103b0000f00720009e007800808f5000edff340009
:103b100000c0eb0014e8b7002e009000e90f500041
:103b200008003c002e009000004078000043b000e8
:103b30000041780041c1b30060c4b30030ff07000a
:103b40001b0037002e019000706626000090b9001f
:103b5000c288de004f90de000080500000407800f8
:103b60000043b0000041780041c1b30060c4b3001d
:103b700023ff0700ae009000706626000089b900a0
:103b80004299de004f88de00000051006a01b90052
:103b90000200780000805000004078000043b00030
:103ba0000041780041c1b300c0c4b30014ff070056
:103bb0002253280041c1b30020c5b30071ff0700a4
:103bc0000080fa00000006000000fa001468ef0010
:103bd0004ff7070000c0eb0014e8b700625328005d
:103be00041c1b300a0c0b30066ff07000080fa0027
:103bf000000006000600fa00200798002108800057
:103c0000000320000100700020088800f00220005e
:103c1000100888000021ef0005e1a8006000b8004e
:103c2000008fbe001000370000000000200480005c
:103c3000680060000000e000fcff32008460a90022
:103c400012002000030020001e0f41005e97490073
:103c5000804080009140800061004000e08048008a
:103c600080408800914088002e0090008000eb008a
:103c7000be0f5000ae8f5800ebff3e0005e1a900db
:103c80000080fa00000006002000fa00600f980093
:103c9000710f98007e089000004f78001e40780059
:103ca000e44f5000050032001e407800e84f5000fd
:103cb0000200320040c0b300004f78001e80fb00bd
:103cc000500798000000eb00100798000e00370026
:103cd0001e0090000000e8009e0090006e09900019
:103ce00081004100914078008180fb00000040008d
:103cf000000047006a004000010878001e009000a4
:103d00000000e800100798001e009000e70f500028
:103d1000efff340000802100010020002007980000
:103d200031079800220424002e009000be0090006d
:103d30001ef2070050002000aeff07000000eb005d
:103d400040079800110037004e009000000040002e
:103d50000000470050009000000178002e00900005
:103d6000be00900033f207002e009000be009000cd
:103d700062004000e080480020079800310798006a
:103d80004e0090000000e800400798004e009000b0
:103d9000e80f5000ecff34005000200095ff0700b2
:103da0000080fa00000006000e00fa00500798009c
:103db000610798000080210001002000008fbe00f4
:103dc0000000eb0030079800660047000002eb009f
:103dd00023002000000178001e00be0020f2070032
:103de0003e009000e10f400028003a006e00900075
:103df00041002000010878005e00900031c0b3004f
:103e0000014878005e0090000000e8008040eb0070
:103e1000014878005e0090000080e80011c0b30007
:103e2000014878005e0090006300400021c0b300ac
:103e3000014878005e009000640040008040eb0084
:103e4000014878005e009000650040008040eb0073
:103e5000014878005e009000660040008040eb0062
:103e6000014878005e009000670040008040eb0051
:103e7000014878006e009000100078008000780003
:103e80005e00900080ff07004c0037003e0090006d
:103e9000e40f5000260032003e009000e80f500072
:103ea000230032006e0090004100200001087800dd
:103eb0005e00900031c0b300014878005e009000c1
:103ec0000000e8008040eb00014878005e009000b0
:103ed0000080e80011c0b300014878005e00900047
:103ee0006300400021c0b300014878005e009000ec
:103ef000640040008040eb00014878005e009000c4
:103f0000650040008040eb00014878005e009000b2
:103f1000660040008040eb00014878005e009000a1
:103f2000670040008040eb00014878002300370024
:103f30003e009000800078006e009000010878003c
:103f400022002000030020001e0f41005e97490060
:103f50000000eb0020079800150037000000eb0080
:103f600040079800680047000002eb002300200093
:103f7000000178001e00be00b9f107002e0090007d
:103f8000de00900000804000ce009000814078006c
:103f90000148780022002000030020001e0f41008d
:103fa0005e9749002e0090000000e800200798006e
:103fb0002e009000e70f5000e8ff34000080fa0068
:103fc000000006000400fa00004f78001147980036
:103fd000224798001e4078000004e00006003200ee
:103fe0001e80fb000080ea0080007800f00f2000b7
:103ff000008060000100370000102000a00c880045
:104000001e4090000004e000070032001e409000b7
:104010000080fb000080ea0080007800f00f2000a4
:10402000008060000100370000102000f00c8800c4
:104030002e4090000004e000070032002e40900067
:104040000080fb000080ea0080007800f00f200074
:10405000008060000100370000102000400d880043
:104060000080fa00000006000000fa00813680009f
:10407000f00f2c0080806000002021000100700003
:1040800080368800803680004800de00f043b200b1
:104090008080fb00f003200000806000523680002a
:1040a00001fc2f0081006100010070005036880083
:1040b000d1368000f00f2c0080806000003021009d
:1040c00001007000d0368800d03680004800de0045
:1040d000f043b2008080fb00f0032000008060000d
:1040e0004800dd0092368000f10f2c008100610055
:1040f0000100700090368800d136800000fc2f004f
:10410000008060004001b300d0368800d0368000c7
:1041100000407800f043b2008080fb00f0032000f4
:10412000008060004800dd00a2368000f10f2c0006
:104130008100610001007000a0368800c826ef00f1
:104140000080fa00000006000000fa001021ef00d5
:10415000a421ef00200d8000d00c8800d00c80003e
:10416000800c8800e882a800e8a2a800f102a8005c
:10417000f122a800f0c2a800f0e2a8000080fa0036
:10418000000006000000fa000003200080088800fc
:10419000f00f20006008880000102000a00c8800ac
:1041a0009621ef00c0002000900c880070002000d5
:1041b000800c880000102000f00c8800a021ef0087
:1041c000c0002000e00c880070002000d00c8800a7
:1041d00000102000400d8800aa21ef00c000200040
:1041e000300d880070002000200d8800e882a900b2
:1041f000e8a2a900f102a900f122a900f0c2a900d9
:10420000f0e2a9000003200070178800003c2000a5
:10421000b017880000002800800888000080fa009d
:044220000000060094
:020000040000fa
:020000040005f5
:0457f400ffff0000b3
:020000040000fa
:020000040005f5
:0457f8005e2300002c
:020000040000fa
:020000040005f5
:0457fc007f3e0000ec
:00000001FF
